:020000040800F2
:10000000005000200D370008693500086F350008E2
:1000100000000000000000000000000000000000E0
:10002000000000000000000000000000753500081E
:1000300000000000000000007F350008893500083E
:100040005D3700085D3700085D3700085D37000840
:100050005D3700085D3700085D3700085D37000830
:100060005D3700085D3700085D3700085D37000820
:100070005D3700085D370008993500085D370008D6
:100080005D3700085D3700085D370008000000009C
:100090005D3700085D3700085D3700085D370008F0
:1000A0005D3700085D3700085D3700085D370008E0
:1000B0005D3700085D3700085D3700085D370008D0
:1000C00010B5064C2378002B07D1054B002B02D02E
:1000D000044800E000BF0123237010BDD4010020BC
:1000E00000000000BCB90008044B10B5002B03D081
:1000F0000349044800E000BF10BDC04600000000F6
:10010000D8010020BCB900080023C25C0133002ADA
:10011000FBD1581E7047000002B4714649084900DF
:10012000095C49008E4402BC7047C04603B4714666
:10013000490840004900095E49008E4403BC7047ED
:10014000002243088B4274D303098B425FD3030A16
:100150008B4244D3030B8B4228D3030C8B420DD329
:10016000FF22090212BA030C8B4202D312120902B7
:1001700065D0030B8B4219D300E0090AC30B8B42F5
:1001800001D3CB03C01A5241830B8B4201D38B03A3
:10019000C01A5241430B8B4201D34B03C01A524148
:1001A000030B8B4201D30B03C01A5241C30A8B428B
:1001B00001D3CB02C01A5241830A8B4201D38B0276
:1001C000C01A5241430A8B4201D34B02C01A52411A
:1001D000030A8B4201D30B02C01A5241CDD2C3098C
:1001E0008B4201D3CB01C01A524183098B4201D308
:1001F0008B01C01A524143098B4201D34B01C01AF3
:10020000524103098B4201D30B01C01A5241C3086A
:100210008B4201D3CB00C01A524183088B4201D3D9
:100220008B00C01A524143088B4201D34B00C01AC5
:100230005241411A00D20146524110467047FFE731
:1002400001B5002000F0F0F802BDC0460029F7D04B
:1002500076E7704703460B437FD4002243088B4266
:1002600074D303098B425FD3030A8B4244D3030B3D
:100270008B4228D3030C8B420DD3FF22090212BA02
:10028000030C8B4202D31212090265D0030B8B427E
:1002900019D300E0090AC30B8B4201D3CB03C01A68
:1002A0005241830B8B4201D38B03C01A5241430B43
:1002B0008B4201D34B03C01A5241030B8B4201D333
:1002C0000B03C01A5241C30A8B4201D3CB02C01A9E
:1002D0005241830A8B4201D38B02C01A5241430A16
:1002E0008B4201D34B02C01A5241030A8B4201D305
:1002F0000B02C01A5241CDD2C3098B4201D3CB01AC
:10030000C01A524183098B4201D38B01C01A52415A
:1003100043098B4201D34B01C01A524103098B425E
:1003200001D30B01C01A5241C3088B4201D3CB0049
:10033000C01A524183088B4201D38B00C01A52412C
:1003400043088B4201D34B00C01A5241411A00D2DC
:1003500001465241104670475DE0CA0F00D0494245
:10036000031000D34042534000229C4603098B42B5
:100370002DD3030A8B4212D3FC22890112BA030A3D
:100380008B420CD3890192118B4208D389019211BF
:100390008B4204D389013AD0921100E08909C30944
:1003A0008B4201D3CB01C01A524183098B4201D346
:1003B0008B01C01A524143098B4201D34B01C01A31
:1003C000524103098B4201D30B01C01A5241C308A9
:1003D0008B4201D3CB00C01A524183088B4201D318
:1003E0008B00C01A5241D9D243088B4201D34B0033
:1003F000C01A5241411A00D20146634652415B1075
:10040000104601D34042002B00D549427047634655
:100410005B1000D3404201B5002000F005F802BD9A
:100420000029F8D016E770477047C0468446100090
:1004300062468C461900634600E0C0461FB501F0D5
:10044000B3F8002801D40021C8421FBD10B501F047
:1004500003F84042013010BD10B501F0A5F80028A6
:1004600001DB002010BD012010BDC04610B501F019
:100470009BF8002801DD002010BD012010BDC04602
:1004800010B501F02BF8002801DC002010BD012080
:1004900010BDC04610B501F021F8002801DA002097
:1004A00010BD012010BDC046002B11D1002A0FD174
:1004B000002900D1002802D00021C943080007B458
:1004C000024802A14018029003BDC0465DFFFFFF35
:1004D00003B4684601B5029800F0A4F8019B9E465B
:1004E00002B00CBC7047C046F0B5CE469946030C2E
:1004F0009C46130447461B0C1D000E006146040475
:10050000240C80B50700100C4B4365434143604306
:100510002C0CC01820188C46834203D980235B0220
:100520009846C444494679435643030C2D042D0C88
:100530008919634400044019C918C0BCB946B046C3
:10054000F0BDC04670B500220C4B04000D00FFF753
:10055000A1FF002804D12000290001F0EBFE70BDAE
:10056000064B00222000290001F044FB01F0E2FECE
:1005700080231B069C466044F1E7C0460000E04132
:1005800070B505000C000022002328002100FFF7B1
:1005900063FF002808D12800210000F00FF80200B6
:1005A0000B001000190070BD80231B06E118280005
:1005B00000F004F8002342428B41F2E770B50022BC
:1005C0000B4B0D00040001F053F8FFF7BBFF0600D2
:1005D00001F016FF0022074B01F04AF802000B0061
:1005E0002000290001F006FBFFF7ACFF310070BDD1
:1005F0000000F03D0000F04170B50600080001F079
:10060000CFFE0022064B01F033F80D00040030004D
:1006100001F0F6FE2B00220000F0D0F870BDC046BD
:100620000000F041F0B557464E464546DE46E0B57F
:1006300004000D009246994683B08B4230D82DD0ED
:100640004946504601F0EEFF29000600200001F067
:10065000E9FF331A9846203B34D49B4653465A460A
:10066000934042461F00534693401E00AF423BD882
:10067000AF4200D179E05B46A41BBD41002B00DAFC
:1006800076E0002200230092019301235A46934012
:100690000193012342469340009329E08242CFD93F
:1006A00000220023009201930C9B002B01D01C60C0
:1006B0005D600098019903B0F0BCBB46B246A94604
:1006C000A046F0BD42469B4620239B1A5246DA4084
:1006D000414613004A468A40170042461F4353468C
:1006E00093401E00AF42C3D9002200230092019321
:1006F0004346002BD8D0FB0772081A4346467B08B6
:100700000EE0AB4201D1A2420CD8A41A9D410120B7
:1007100024196D410021013E24184D41002E06D0C0
:10072000AB42EED9013E24196D41002EF8D100985C
:1007300001995B4600196941002B24DB2B005A46C6
:100740004446D3402A00E2401C005B461500002BC3
:100750002ADB26009E40330026004746BE4032007A
:10076000801A9941009001919EE7A342BCD882E78C
:100770004246202300219B1A00220091019201226F
:10078000DA40019285E7424620239B1A2A0046461A
:100790009A402300F340444613432A00E2401C00E1
:1007A0005B461500002BD4DA42462F00202326009A
:1007B00097409B1ADE403B003343CDE7F0B54F46F0
:1007C0004646D6460400C0B51F000B0310004E007D
:1007D0005B0ACD0F610F7A001943E3003C03FF0F62
:1007E000BC46640A470F2743760D520DC000B94638
:1007F0008046B71A654500D19BE0002F00DC84E0FD
:10080000002A00D1BEE0C84A964200D124E18022ED
:100810004C4612041443A146382F00DD67E11F2F18
:1008200000DDD6E120224C46D21B9440A24644462D
:10083000FC4020005446044340469040421E9041F4
:100840004A46FA400443891A1C1BA3429241524271
:100850008B1A9A4653461B0200D4D4E053465A02E0
:10086000530A9A465346002B00D104E1504601F04A
:10087000BBFE0300083B20222000D21A5146D04084
:10088000994002009C400A43B34200DA02E19B1BFC
:10089000591C1F2900DDA7E02023100026005B1A49
:1008A0009C409840CE40CA40631E9C4130439246D3
:1008B00000260443630709D00F232340042B05D0EF
:1008C000231DA342A4416442A2441C0053461B02C0
:1008D00000D49BE0944B01369E4200D1B8E05346D1
:1008E0009249E4080B4019005B07234372054C0250
:1008F000240B520D1205ED0722432A431800110064
:10090000E0BCBA46B146A846F0BD002F48D0971BC0
:10091000002E00D00EE10C001C4300D1B7E17C1E7C
:10092000012F00D126E2804DAF4200D1D5E1270052
:1009300007E1002F00DCB2E0002A47D07A4A964255
:1009400000D189E080224C4612041443A146382F7E
:100950006BDC1F2F00DC6EE13A004846203AD040A5
:100960008446202F07D040224846D21B90400200E8
:100970004046104380464046421E90416246040075
:10098000144357E04A46024300D103E17A1E012F87
:1009900000D193E1644CA74200D18AE117003BE704
:1009A000634C721C224200D0E0E00A001A43002E81
:1009B00000D074E1002A00D1D0E14A46024300D0C1
:1009C000E3E14A07DB081343C90829E04A4602432A
:1009D00000D17DE17A1E012F00D1E0E0524CA74208
:1009E00000D166E11700B2E710001F3BD840202974
:1009F00003D040235B1A9A401443631E9C4100239A
:100A000000269A460443630700D055E75246E308A0
:100A10005207134352463700D108434A97421FD02A
:100A200009037A050C0B520D64E742464C46144309
:100A3000621E9441E4189C429241524292468A447A
:100A400053461B02DFD5384B01369E4200D0B3E03F
:100A50003200002400234DE74A07DB081343C9088E
:100A60001A000A4300D100E2802424030C4324032B
:100A70002D4A240B3EE7200001F0B6FD0300183399
:100A80001F2B00DCF7E62200083882400024B34226
:100A900000DBFCE6F61A254B1A4092460AE7002FC7
:100AA0002BD0971B002E00D1B8E01F4CA24200D1E2
:100AB0001CE1802424042143382F00DD1EE11F2F78
:100AC00000DD9EE120260C00F61B1800B340B44068
:100AD000F8405E1EB341F94004431C43894444443A
:100AE00044459B415B424B449A461600A8E7424668
:100AF0004C461443621E9441A6E60D4C721C2242E1
:100B000000D0A8E00A001A43002E00D00AE1002A13
:100B100000D15EE14A46024300D061E14A07DB08AA
:100B20001343C9087CE7C046FF070000FFFF7FFFB3
:100B3000FE070000CF4CA24200D1CEE08024240466
:100B40002143382F5BDC1F2F00DDDCE020250C006B
:100B5000ED1B1E00AB40AC40FE405D1EAB4134437C
:100B6000F9401C434B465B1A99464CE04A461C1A16
:100B7000881AA34292415242924602005046121AEB
:100B80009246120278D45346234300D06AE60021ED
:100B9000002545E74A07DB081343C9083DE71C1851
:100BA0009C429B4149448A465B429A4453460126F3
:100BB0001B0200D427E702265246AF4B01211A4000
:100BC0001300214062080A43DC075B089A4614437D
:100BD00070E63A004C46203AD440A446202F07D075
:100BE00040224846D21B90400200404610438046B7
:100BF0004046421E904162460400144324E61943D5
:100C00000C00631E9C4143461C1BA0459B4149466A
:100C10005B42CB1A9A46654616001BE60C001C4345
:100C200000D1C7E07C1E012F00D1F9E0914EB74200
:100C30005CD0270040E720224C464046D21B94401F
:100C4000F840044340469040421E90414A46FA40D4
:100C500004438918EEE6874CA24200D1F9E6181841
:100C600098429B4149445B42CB18DC0740085B0833
:100C70009A4616000443C6E64246D41AA04580416F
:100C80004B464042591A0B1A9A466546EAE54B46CE
:100C90004A46C0085B0765460343D108BDE6002A03
:100CA00000D08EE04B46034317D180210025090375
:100CB000DAE64A07DB081343C908D1E61C1A4A469C
:100CC000A3429B41891A5B42CB1A9A460126C1E591
:100CD0004A07DB081343C9089FE64346D8084B463A
:100CE0004A465B0765460343D108B9E64346D80840
:100CF0004B464A465B070343D108B1E619430C0053
:100D0000631E9C41EBE63C000D00203CE540202F9B
:100D100003D04024E41BA1400B431C00631E9C41F4
:100D20002C4370E7002AE1D04A460243C1D04A076B
:100D3000DB0813438022C9081203114208D0484639
:100D4000C408144204D143462100DB084207134380
:100D50005A0FDB005207DB08134381E64B4603437F
:100D600000D114E74B464A46C0085B07654603437B
:100D7000D10855E6C41AA04580414B464042591A55
:100D80000B1A9A466546012664E51C1A4A46A34298
:100D900080418A1A4042121A9246120249D54246AE
:100DA000D41AA04580414B464042591A0B1A9A4624
:100DB00065467FE54B464A46C0085B070343D108BA
:100DC0002BE64A46DB08024338D14A071343C908D9
:100DD00046E64B464A46C0085B070343D1081FE678
:100DE0001C189C429B4149448A465B429A445346A4
:100DF0001B0200D407E652461F4B01261A409246BA
:100E000001E63C000E00203CE640202F03D04024A9
:100E1000E41BA1400B431C00631E9C4134435EE66F
:100E200043448342804149448A4640421C008244F4
:100E3000BCE65346234300D1A9E6E4E54A07134341
:100E40008022C9081203114209D04846C40814423E
:100E500005D1434665462100DB08420713435A0F7C
:100E6000DB00DB0852071343FAE50023014A1C00AC
:100E700040E5C046FF070000FFFF7FFFF0B5574683
:100E80004E464546DE46E0B50C031F004B0081464A
:100E90009246050085B0240B5B0DCE0F002B00D1D0
:100EA00052E1D24A934200D16EE1420FE400144372
:100EB0008022120422439046CD4AC50093469B44AB
:100EC0000023994600933C037B005046240B5B0DA6
:100ED000FF0F002B00D11AE1C44A934200D15EE11A
:100EE000420FE4002243802424041443C04AC1007A
:100EF00094465A466344D31A9B46002033007B40F5
:100F00009A464B460F2B27D8BA4A9B00D3589F4688
:100F1000B246009B022B16D0032B00D187E2012B97
:100F200000D0D5E00023002200251B0513435246C4
:100F3000D20713432800190005B0F0BCBB46B246E7
:100F4000A946A046F0BD00220025A84BEDE7BA4611
:100F5000A0460D000090DCE7444500D2C4E100D17A
:100F6000BFE101235B429C462E0040460025E3443E
:100F700023020C0E1C431B0C994623040A021F0C6F
:100F8000494600920197FFF761F902007A430B048A
:100F9000310C804619438A4207D901235B429C46A3
:100FA0000919E0448C4200D801E2881A4946FFF74B
:100FB0004DF9019A360442430904360C03000E43EE
:100FC000B24204D93619013BB44200D8E9E1B01A63
:100FD0004246009E12041A43330C1F00110C904627
:100FE000029313043204160C32001B0C5A4303966E
:100FF0007B434E437943170CBC469B1963449E4286
:1010000003D980267602B44661441E0C711816047A
:101010001B04360C9E19884202D312D1B54210D25D
:1010200043465A1E009B9C4665441F009D429B41BF
:101030005B421B19C018844200D29EE100D199E1A5
:101040009046AE1BB542AD41401A6D42401B8442F2
:1010500000D1D2E14946FFF7F9F8019A0B04424367
:10106000310C050019438A4200D96CE1881A4946BF
:10107000FFF7ECF8019A360442430904360C0300EA
:101080000E43B24200D953E10398B61A02002D0470
:101090001D43029F2B041B0C5A437B439C46290C87
:1010A0004843130C844463447943984203D9802015
:1010B000400284466144180C12041B04120C4018B0
:1010C0009B18864200D200E100D1FBE001231D43C2
:1010D000494B5B44002B00DCAAE06A0700D03DE1ED
:1010E000E9084246D20106D54246444B1A408023C5
:1010F0009046DB005B44424A934200DD23E74246D0
:101100005B05550752020D43120B5B0D0DE751466F
:10111000214300D17CE0002C00D1FBE0200001F055
:1011200063FA02000B3A1D239B1A52460100DA4073
:10113000534608398B408C4019001443314B5844B6
:101140009B4683440020D9E603002343984644D0BD
:10115000002C00D1CFE0200001F046FA010002008F
:101160000B391D235B1A49461000D94008388440CA
:101170000B004D46234398468540234B9B1A9B46C4
:101180000023994600939EE60200224390461DD11B
:1011900008229B46022300259146009393E6514680
:1011A000214309D102234A461A43184B91469C46D3
:1011B00000240220E344A1E603234A461A43134BCA
:1011C00091469C4651460320E34497E60C229B46F9
:1011D0000323A0469146009375E604239946002315
:1011E0009B460133002500936DE6C046FF070000D3
:1011F00001FCFFFF74BB0008FF030000FFFFFFFEC0
:10120000FE070000F30300000DFCFFFF01F8FFFFE5
:101210004A4601231A439146002401206EE600232A
:1012200080229A460025884B12037EE601256D42F6
:101230000122D21A382A00DD74E61F2A00DCBDE044
:101240001F214942CB1A4146D9400B00202A04D025
:1012500041467E4A5A4491400D4329004A1E91411D
:10126000194307231D0000220D400B4200D1D0E09E
:101270000F2200230A40042A00D1C7E00A1D8A4237
:10128000894149425B1811001A0200D4BEE00123D3
:101290000022002549E6802243461203134208D06B
:1012A000144206D122431203BA460D00664B120BBC
:1012B0003BE68022434612031A431203B246624BB6
:1012C000120B32E6002B00D102E7A6196A1EA642D5
:1012D00000D289E0864200D29FE000D1AFE0150045
:1012E000F4E6A94200D93CE64346DE0758086B08FD
:1012F0001E43ED073CE601F077F9010002001531CD
:1013000020321C2900DC2CE74B460838834000259E
:10131000984632E701F068F903001A0015322030D0
:101320001C2A00DCFFE65446083B00219C4005E7F0
:101330003619013BB44200D9A6E6B24200D8A3E672
:10134000831E3619A0E60919013D8C4200D98DE6AD
:101350008A4200D88AE6851E091987E60F222A40AC
:10136000042A00D1BCE6291DA942AD416D42C9083D
:10137000A844B6E6AF4200D962E6814204D800D064
:101380005EE6AE4200D85BE602235B429C46009BD1
:10139000E0449C4665449D429B415B421B19C0183A
:1013A0004FE6B24200D812E6831E36190FE68A4293
:1013B00000D8FAE5831E98460919F6E5244B280063
:1013C0005B4441469D409940D0406B1E9D41434641
:1013D00001432943D3404A0700D155E70F220A4071
:1013E000042A00D04AE74FE71500864200D06DE698
:1013F000009A9A4200D069E66AE6164B5B44002BDD
:1014000000DC13E701250021A8446AE65D075B02C2
:101410001A0BC90800230D4387E50099023D4A00D5
:101420008A42BF417F423F19F6190092DDE78022D0
:10143000434612031A431203034B120B75E500993E
:101440009942EAD31500D3E7FF0700003E040000ED
:101450001E040000FF030000F0B54E464546DE4680
:1014600057469046E0B517001A03120B0500844654
:1014700019480E034C0091465A00DB0F9B46360B71
:10148000640DC90F520D844219D0824210D0012040
:1014900094420ED14E450CD10120C44509D1594585
:1014A00017D0002C05D130002843431E984100E09E
:1014B0000120F0BCBB46B246A946A046F0BD3300B1
:1014C00001202B43F5D1A242F3D14B463B43F0D14F
:1014D000E2E70020EDE7C046FF070000F0B5474611
:1014E000CE460400180016001B031B0B2D4D4A00AE
:1014F000994680B543000F03A446B0463F0B520DFA
:10150000C90F5B0DC00FAA4221D0AB4213D0002AF5
:1015100022D13C43002B02D14D462E4322D0002C39
:1015200010D0814222D00220013908400138C0BCCD
:10153000B946B046F0BD4D462E4329D1002AF0D120
:101540003C43EED10028F2D101204042EFE73D00BC
:1015500025431DD19342EED0002BE2D14C462643C9
:10156000DFD1E0E70020002CE1D0DCE79A420ADC82
:10157000E8DB4F45D7D80ED000204F45D7D2002901
:10158000E2D00800D3E74342584140000138CEE79B
:1015900002204042CBE7C445C5D80020C445C6D28E
:1015A000EDE7C046FF070000F0B54746CE46040011
:1015B000180016001B031B0B2C4D4A00994680B5E2
:1015C00043000F03A446B0463F0B520DC90F5B0DFD
:1015D000C00FAA420DD0AB4210D0002A27D13C4305
:1015E000002B11D14D462E430ED10020002C15D0DA
:1015F0000EE03D00254310D1934218D14D462E43B5
:101600000BD1002A02D13C43002C0BD0814214D0D4
:10161000022001390840013800E00220C0BCB94670
:10162000B046F0BD0028F9D101204042F6E7002B7A
:10163000ECD14C462643E9D1EAE79A4204DD434225
:10164000584140000138E9E79A42EBDB4F45DFD8CB
:1016500006D000204F45E1D20029E5D00800DDE7A3
:10166000C445D5D80020C445D8D2F5E7FF0700000F
:10167000F0B54546DE4657464E46E0B51F000B0323
:101680001B0B9B464D00CB0F04009146984687B03C
:101690006D0D00D1CDE1CE4B9D4200D1E9E15A461E
:1016A000430FD2001343802212041A43C3009A4608
:1016B000C84B93469C4600230026654400933C0398
:1016C0007B004846240B5B0DFF0F002B00D189E106
:1016D000BF4A934219D0420FE400224380242404DD
:1016E0001443BC4A00219446424663445B1901936B
:1016F000019B7A400133C000D2B202930A2E1CDD56
:101700003A000B2E5ED0474656E04946B04B214387
:10171000EB18019300292AD18020022200012B001E
:1017200084461643424663447A40D2B202930A2E5C
:1017300000DD31E2002000240221022E26DC013EE1
:10174000012E52D802294CD0012900D018E10023E3
:10175000002400251B052343D2071343280019004A
:1017600007B0F0BCBB46B246A946A046F0BD8021FA
:10177000032209012B008C461643424663447A40FB
:10178000D2B202930A2E00DD28E203210125B540E2
:10179000AC46A6266346F600354033420BD1902670
:1017A000B600334218D1B93EFF3E1E421DD0A346BB
:1017B0008246009100E0170000993A00022910D0FB
:1017C0005C4650460329BFD180231B031C432403DE
:1017D00005007F4B240BBDE7802400227C4B2403B3
:1017E000B8E7002400257A4BB4E753461E04360CB4
:1017F0001F0C3300010C0004000C43439846030007
:101800007B43994633004B439C4643460D001B0CDB
:101810009A467D43CC44D4440095E14504D98023C5
:101820005B0299464D44009563461B0C1D006346C0
:101830001B049C4643461B041B0C984663464344CA
:101840000393230C984633002404240C63439C46E2
:1018500023007B43994643465E435F434E446346C1
:10186000B2461E0C5644B14503D980235B0299460B
:101870004F44330C99463B004B4405936346AC46BA
:101880001F043F0C3604F619B444634604935B46C8
:101890001B0C9C465B461F043F0C3B004343994690
:1018A000634643439A464B4660461B0C9B4648435F
:1018B0007943514459448A4503D980235B029A46AF
:1018C00050440B0C9A464B461B041B0C99463B009C
:1018D0006343090445464944994663465C436B4368
:1018E0009C464B461B0C98466F433F194744504457
:1018F000BC4203D980235B029846C444049B009DEC
:1019000098464544B542B641734298464B461E043C
:10191000059B3C049946360CA4194C44A1468346C9
:101920006E18C1448E428941CB445D4649426D18D0
:101930009C42A441C1459B41834580418D428941E0
:101940005B4264421C434042039B49420143700294
:101950003F0C1843E419471EB84164186444F60D5F
:1019600061023043EC0D6E020C433043C90100D4D8
:10197000F1E00121430801400B43E00718436408EC
:101980001549029B8C466344002B00DC97E041071D
:1019900009D00F210140042905D0011D8142804159
:1019A000404224180800E10106D58021C9008C4678
:1019B0000A4B1C40029B634409498B4200DD10E73F
:1019C0006107C50864025B050D43240B5B0DC1E68E
:1019D000FF07000001FCFFFFFF030000FFFFFFFE09
:1019E000FE0700004B46234359D0002C00D1A3E052
:1019F000200000F0F9FD010003000B391D22521AEE
:101A000049461800D1404A460838824084401000B8
:101A10000C43744AEB1A9446424663440193019B7B
:101A20007A4001330021D2B202930A2E00DD67E62C
:101A300083E65B4603439A462AD05B46002B6DD073
:101A4000584600F0D1FD010003000B391D22521A47
:101A5000210018005D46D140083885400A008440C6
:101A60002A439346A2465F4D0026ED1A00230093B9
:101A700025E65B4603439A4605D100239B46023385
:101A8000082600931BE6032382460C26009316E6E5
:101A900000239B4601330426002500930FE64246AF
:101AA000013301951E43019B7A400133002400203D
:101AB0000121D2B202930A2E00DD21E63DE601218A
:101AC000C91A382900DD42E61F2947DD1F262500F7
:101AD0007642F31ADD402B00202905D04249029DB1
:101AE0008C466544AC402043411E8841184307237F
:101AF0001D000024054003424AD00F230024034068
:101B0000042B42D0031D8342804140422418180018
:101B100023023AD50123002400251BE600F064FDD2
:101B200001000300153120331C298FDD0838002205
:101B300084409246A34696E700F056FD010003005C
:101B4000153120331C2900DC58E702004C46083AC6
:101B5000002094405DE7019B029311E7234B260090
:101B60009C460300029DCB406544AE401E430300EB
:101B7000AB40581E834130001843CC404307C7D0C8
:101B80000F230340042BBDD1C2E765076402240B79
:101B9000C00800230543DDE5002502230F2E0CD1EC
:101BA00080245B46240323420ED021420CD10C43F7
:101BB00024033A000E4B240BCCE50B2E00D0A2E5FB
:101BC0008B46AA460093F7E580245B4624031C431A
:101BD000240342465546064B240BBBE54D462100E7
:101BE0000323DBE70DFCFFFF3E0400001E040000A2
:101BF000FF070000F0B557464E464546DE46E0B5C5
:101C00000D000400190010002B035B0A620F1A4339
:101C1000E3000C03640A470F2743D04C6E00914643
:101C200083B04A00C0009846A246760DED0F520DD3
:101C3000C90F0190A24200D1B9E0012461408B4656
:101C40008D4200D18DE0B41AA446002C00DCB7E030
:101C5000002A00D1CBE0C14A964200D186E1802221
:101C6000120417436246382A00DDA4E11F2A00DD72
:101C70001DE2614620223C00521A0100904094402F
:101C8000421E90416246A0466446D7404A46E14023
:101C90004446D21B91460C4304431C1BA342924171
:101CA0004B4652429B1A9A4653461B0200D42BE1E4
:101CB00053465A02530A9A465346002B00D166E116
:101CC000504600F091FC0300083B20222000D21A6D
:101CD0005146D040994002009C400A439E4200DD9C
:101CE00064E19B1B591C1F2900DDFEE0202310002E
:101CF00026005B1A9C409840CE40CA40631E9C411F
:101D00003043924600260443630709D00F23234043
:101D1000042B05D0231DA342A4416442A2441C000D
:101D200053461B0200D4F2E08C4B01369E4200D198
:101D30000FE153468A49E4080B4019005B0723432F
:101D400072054C02240B520D12052243ED072A4363
:101D50001800110003B0F0BCBB46B246A946A0462D
:101D6000F0BDB41AA446002C59DD002A00D1B0E021
:101D7000564500D1FAE08022120417436246382A01
:101D800000DDD4E01F2A00DCC0E13900203AD14058
:101D90006246202A06D064464022121B3C00944032
:101DA00004430194019C621E94410C43C3E03C0037
:101DB00004432BD08B468D422ED06A4CA446B444AB
:101DC0006446002C5FD0941BA446002E00D020E176
:101DD0004C461C4300D1C7E161464C1E012900D18D
:101DE00023E25E4DAC4500D1D8E1A4461AE13A00A9
:101DF000024300D1E4E02200013A012C00D1C3E10A
:101E000056498C4200D1B1E094462BE70124614051
:101E10008B468D4200D016E752498C46B444644646
:101E2000002C00D1D3E0911B8C46002E00D15EE146
:101E30004A498A4200D1BEE180214C4609040C4344
:101E4000A1466146382900DDBAE11F2900DD27E2FD
:101E50002024641A4946A1401E0088466146A340DA
:101E6000CE4041465C1EA341314319430C006346FA
:101E70004946D9407F18241884429B415B429A46C8
:101E80001600BA445DE0384C721C224200D0DFE0FC
:101E90004A461A43002E00D05CE1002A00D1CFE16F
:101EA0003A00024300D17FE11C1A4A46A34289410D
:101EB000D21B4942521A9246120200D40AE2C41AB4
:101EC000A04280414B464042FF1A3B1A9A465D466B
:101ED0001AE73A00024373D02200013A012C00D1E4
:101EE000CBE0544542D0944648E710001F3BD84011
:101EF000202903D040235B1A9A401443631E9C415F
:101F0000002300269A460443630700D0FEE65246AB
:101F1000E308520713435246B446D2080F498C4592
:101F20002AD01203140B62465205520D0CE73C00F6
:101F30000443621E9441E4189C42924152424A4436
:101F4000924653461B02DFD5044B01369E4200D019
:101F5000A0E0320000240023F6E6C046FF070000A0
:101F6000FFFF7FFF01F8FFFFFE070000DB084A4686
:101F7000520713434A46D2081900114300D1B5E174
:101F80008024240314432403D54A240BDCE62000D8
:101F900000F02AFB030018331F2B00DC95E622001B
:101FA0000838824000249E4200DC9AE6F61ACD4BA7
:101FB0001A409246A8E63C000443621E94416CE637
:101FC0004A46DB08520713434A46D208A6E7C64CE6
:101FD000721C224200D0ACE04A461A43002E00D0C8
:101FE00005E1002A00D156E13A00024300D1DBE0CE
:101FF0001C189C429B414F44BA465B429A4453464C
:102000001B0200D480E75246B64B01261A40924686
:102010007AE7B34CA24200D1C0E080244D462404AC
:102020002543A9466446382C53DC61461F2C00DD4D
:10203000CDE020251E002D1B4C46AB40AC40CE40D1
:102040005D1EAB41344323434C46CC403F1B45E02F
:102050004A461C1AD11BA3429241524292460A00A0
:102060005146521A9246120200D583E0534623434A
:1020700000D021E60022002553E71C189C429B411A
:102080004F44BA465B429A44534601261B0200D491
:102090003AE702265246934B01211A401300214091
:1020A00062080A43DC075B089A4614432CE63900B1
:1020B000203AD1406246202A06D064464022121BB4
:1020C0003C00944004430194019C621E94410C43E3
:1020D000E3E5494619430B005C1EA341C41AA04224
:1020E0009B415B42FB1A9A465D461600DCE5494679
:1020F000194300D1AEE0614664460139012C00D19C
:10210000E0E0774CA44556D08C469AE66146202202
:102110003C00521A944001009040A0466446421E82
:1021200090416246E1404446D7400C430443B944E1
:1021300001E76B498A4200D10CE7181898429B418D
:102140004F445B42FB18DC0740085B089A461600C8
:102150000443D9E6002A00D081E03B0003431DD1AF
:102160008022002512030BE7C0087B075D4603436E
:10217000FA08D3E6C41AA04280414B464042FF1AF7
:102180003B1A9A465D4697E51C1A4A46A3429B4174
:10219000D71B5B42FB1A9A46012685E5C0087B07E0
:1021A0005D460343FA08E7E64A46DB085207134355
:1021B0004A46D208B5E6C0087B070343FA08DBE6C7
:1021C000494619430B00591E8B411C0053E64D46EE
:1021D000203CE540202905D04024641A4946A1400E
:1021E0000B43984643465C1EA3412B4376E7002AE7
:1021F000E1D03A00DB08024300D1B8E64A46520774
:10220000802413434A462403D208224207D0FE0802
:10221000264204D15D463200C3087F073B43590F75
:10222000DB004907DB080B43A6E6C41AA042804145
:102230004B464042FF1A3B1A9A465D46012633E55B
:102240003B00034300D115E7C0087B075D4603430D
:10225000FA0866E6C0087B070343FA085EE63A0020
:10226000DB08024300D182E64A465207802413432A
:102270004A462403D208224207D0FE08264204D14F
:102280005D463200C3087F073B43590FDB00DB0884
:1022900049070B4370E6C0087B070343FA0840E692
:1022A0004C462039CC406146202906D06646402164
:1022B000891B4E468E40334398464346591E8B41F8
:1022C0001C43D8E51C18844280414F44BA46404222
:1022D0008244D9E65346234300D1CBE614E6C046F8
:1022E000FF070000FFFF7FFFFE0700000023014AF9
:1022F0001C0029E5FF07000070B505000C481C0311
:1023000016005B000A034900120B490D240B5B0DFC
:10231000814208D0064A0020934203D12000304376
:10232000431E984170BD01202A43FBD1F2E7C0460D
:10233000FF0700000A0030B5134C530009030500E5
:10234000090B00205B0DD20FA34204DD0F4883422E
:1023500002DD0F4BD01830BD8020400301430D48F3
:10236000C01A1F2808DD0C48C31AD9400B00584278
:10237000002AF0D11800EEE7084CC540A44663449B
:1023800099400B002B43F2E7FE0300001D04000000
:10239000FFFFFF7F3304000013040000EDFBFFFF8D
:1023A00070B5002816D0C317C5185D40C40F2800AB
:1023B00000F01AF9114B1B1A0A2816DC02002E0035
:1023C000153296400B22121AD5405B052D032D0BBA
:1023D0005B0D03E000240023002500261B052B4392
:1023E000E40723433000190070BD0B3885405B05BE
:1023F0002D0300262D0B5B0DF0E7C0461E040000E8
:1024000010B5041E10D000F0EFF80F4B1B1A0A286D
:1024100011DC0B222100121AD14015300A035B0592
:102420008440120B5B0D01E0002300221B051343C7
:102430002000190010BD22000B3882405B051203FA
:102440000024120B5B0DF1E71E04000070B5420280
:102450004300C40FFE201B0E591C550A08420CD025
:10246000E02189008C466D07120B63441B05134362
:10247000E40723432800190070BD002B14D1002D60
:102480001BD0280000F0B0F80A281CDC0B232A001F
:102490001B1ADA40030015339D400E4B12031B1A22
:1024A0005B05120B5B0DE1E7002D09D0130B8022B9
:1024B00012031A436D07084BD8E700230022D5E723
:1024C0000022054BD2E703002A000B3B9A4000256F
:1024D000E3E7C04689030000FF0700000200F0B5F3
:1024E0004B000D03400F5B0DCC0F6D0A3A490543BD
:1024F000581CD70008420AD038495918FE2916DD61
:10250000FF200022C0051043E4072043F0BD002B4C
:1025100006D13D4326D005229201520AD8B2F1E7F6
:102520002F43EDD08022D203FF202A43EAE700297F
:102530001BDD9201501E8241ED007F0F2A433A437A
:10254000530747D00F231340042B00D004328023BD
:10255000DB0413403ED0481CFE29D1D09201520A20
:10256000C0B2CFE700200022CCE70A0017322FDBF1
:10257000802636042E431E256D1A1F2D11DD0222E2
:102580005242521A3100D140202D04D0144A9446B0
:1025900063449E4037433A00531E9A410A43002148
:1025A000CEE7104A38009446634498403A00411EF2
:1025B00088419E40EA403043024300215307C1D185
:1025C00080211300C90401200B400A42C6D1A3E7B1
:1025D0000023A0E70B009FE7FE07000080FCFFFF41
:1025E000A2FCFFFF82FCFFFF1C2101231B04984279
:1025F00001D3000C10391B0A984201D3000A083994
:102600001B09984201D30009043902A2105C40184A
:102610007047C046040302020101010100000000EE
:102620000000000010B5002903D1FFF7DDFF2030C6
:1026300002E00800FFF7D8FF10BDC04690B587B094
:1026400002AF0200FB1D1A700F203B18FA1D127812
:102650000F218A431A70FB1D1B781A010E243B19A7
:102660001A703B181B780C221343DAB208217B182E
:102670001A703B181B7808221343DAB27B185A7081
:102680003B191B780C221343DAB27B189A703B1962
:102690001B7808221343DAB27B18DA707A180548DF
:1026A0006423009304234E2101F086FCC046BD46FE
:1026B00005B090BDF001002090B587B002AF0200D8
:1026C000FB1D1A700F203B18FA1D12780F218A4348
:1026D0001A70FB1D1B781A010E243B191A703B1847
:1026E0001B780D221343DAB208217B181A703B18AD
:1026F0001B7809221343DAB27B185A703B191B78F6
:102700000D221343DAB27B189A703B191B78092209
:102710001343DAB27B18DA707A1805486423009301
:1027200004234E2101F048FCC046BD4605B090BDD3
:10273000F001002080B500AF322001F081F8302098
:10274000FFF77CFF052001F07BF83020FFF776FFD4
:10275000012001F075F83020FFF770FF0A2001F02A
:102760006FF82020FFF76AFF0A2001F069F828209F
:10277000FFF764FF012001F063F80820FFF75EFF18
:10278000012001F05DF80120FFF758FF012001F062
:1027900057F8012001F054F80620FFF74FFF012001
:1027A00001F04EF80C20FFF749FFC046BD4680BD42
:1027B00080B582B000AF786006E07B685A1C7A6012
:1027C0001B781800FFF778FF7B681B78002BF4D18B
:1027D000C046C046BD4602B080BD000080B584B092
:1027E00000AFF860B9607A607B689AB201235B42FF
:1027F000B968044802F09EFF7B681800BD4604B02B
:1028000080BDC046CC02002080B582B000AF7860A9
:1028100080231902A023DB050122180001F018FB18
:10282000FA239B0079680848082202F083FF80237E
:102830001902A023DB050022180001F009FBC046A5
:10284000BD4602B080BDC0464402002080B582B0C3
:1028500000AF78600A00BB1C1A80664BDB781B0255
:102860001AB2644B1B791BB213431BB29AB2624B70
:102870001A80604B5B791B021AB25E4B9B791BB2CC
:1028800013431BB29AB25C4B5A805A4BDB791B0242
:102890001AB2584B1B7A1BB213431BB29AB2564B57
:1028A0009A80544B5B7A1B021AB2524B9B7A1BB232
:1028B00013431BB29AB2504BDA804E4BDB7A1B02A9
:1028C0001AB24C4B1B7B1BB213431BB29AB24A4B3E
:1028D0001A81484B5B7B1B021AB2464B9B7B1BB297
:1028E00013431BB29AB2444B5A81424BDB7B1B020F
:1028F0001AB2404B1B7C1BB213431BB29AB23E4B25
:102900009A813C4B5B7C1B021AB23A4B9B7C1BB2FC
:1029100013431BB29AB2384BDA81364BDB7C1B0275
:102920001AB2344B1B7D1BB213431BB29AB2324B0B
:102930001A82304B5B7D1B021AB22E4B9B7D1BB261
:1029400013431BB29AB22C4B5A822A4BDB7D1B02DB
:102950001AB2284B1B7E1BB213431BB29AB2264BF2
:102960009A82244B5B7E1B021AB2224B9B7E1BB2C7
:1029700013431BB29AB2204BDA821E4BDB7E1B0242
:102980001AB21C4B1B7F1BB213431BB29AB21A4BD9
:102990001A83184B5B7F1B021AB2164B9B7F1BB22C
:1029A00013431BB29AB2144B5A83124BDB7F1B02A8
:1029B0001AB2104B20215B5C1BB213431BB29AB2BC
:1029C0000D4B9A830B4B21229B5C1B021AB2094BC5
:1029D00022215B5C1BB213431BB29AB2064BDA8313
:1029E000064B01228021180001F032FAC046BD4694
:1029F00002B080BD540300209C030020000800505A
:102A0000B0B59EB000AF00F0ABFE00F0ABFA00F046
:102A1000BDFB00F059FB00F089FB00F015FBF54908
:102A2000F54B2022180004F02FFAF44B01221A7003
:102A3000F24B03225A70F14B00229A70EF4B612245
:102A4000DA70EE4B00221A71EC4B0A225A7176258D
:102A50007C19EA4B0621180000F03CFC030023809F
:102A600029007B181B88DAB2E44B9A717B181B880B
:102A70001B0A9BB2DAB2E14BDA71E04B1800FFF7A8
:102A8000C3FEDC49DC4B2022180004F0FDF9DC4BCE
:102A9000180005F00BFA74217B18DA4A12881A80A4
:102AA0007B181B883B67386FFFF77AFC0022D64BF8
:102AB000FEF7E4F902000B0010001900FFF70EFD0D
:102AC000031CFB66F86EFFF7C1FC02000B00CF4948
:102AD000CF4805F0F5F9CE4B1800FDF715FB0300C4
:102AE0009AB2CB49CB48642302F024FEF86EFFF77C
:102AF000ADFC02000B00C849C54805F0E1F9FFF73D
:102B000019FE8020FFF79AFD0A2000F099FEC04BC5
:102B10001800FFF74DFE642000F092FE6A217B183A
:102B2000B84A52881A807B181B887B66786EFFF73C
:102B300037FC0022B44BFEF7A1F902000B00100095
:102B40001900FFF7CBFC031C3B66386EFFF77EFCD9
:102B500002000B00B149AE4805F0B2F9AC4B1800C9
:102B6000FDF7D2FA03009AB2A949AA48642302F0F9
:102B7000E1FD386EFFF76AFC02000B00A849A4488B
:102B800005F09EF9C020FFF759FD0A2000F058FE1D
:102B90009F4B1800FFF70CFE642000F051FE5E21F1
:102BA0007B18984A92881A807B181B88BB65B86D81
:102BB000FFF7F6FB0022944BFEF760F902000B00D2
:102BC00010001900FFF78AFC031C7B65786DFFF786
:102BD0003DFC02000B0093498D4805F071F98C4BC8
:102BE0001800FDF791FA03009AB2894989486423D5
:102BF00002F0A0FD786DFFF729FC02000B008A4966
:102C0000834805F05DF99420FFF718FD0A2000F0D5
:102C100017FE7F4B1800FFF7CBFD642000F010FE7D
:102C20000A2005F0E3F8814B180005F03FF9522126
:102C30007B18744AD2881A807B181B88FB64F86C56
:102C4000FFF7AEFB00227A4BFEF718F902000B00EB
:102C500010001900FFF742FC031CBB64B86CFFF7BF
:102C6000F5FB02000B007349694805F029F9684B30
:102C70001800FDF749FA03009AB2654965486423D4
:102C800002F058FDB86CFFF7E1FB02000B006A4947
:102C90005F4805F015F9D420FFF7D0FC0A2000F0BA
:102CA000CFFD5B4B1800FFF783FD642000F0C8FDEB
:102CB00046217B18534A12891A807B181B883B6473
:102CC000386CFFF76DFB0022594BFEF7D7F8020076
:102CD0000B0010001900FFF701FC031CFB63F86BED
:102CE000FFF7B4FB02000B005449494805F0E8F82F
:102CF000474B1800FDF708FA03009AB244494548CB
:102D0000642302F017FD3A217B183E4A52891A804B
:102D10007B181B887B63786BFFF742FB0022444BD8
:102D2000FEF7ACF802000B0010001900FFF7D6FB0D
:102D3000031C3B63386BFFF789FB02000B00404923
:102D4000334805F0BDF8324B1800FDF7DDF90300FC
:102D50009AB22F492F48642302F0ECFC0A2005F0B8
:102D600045F8384B180005F0A1F82E217B18254AAC
:102D700092891A807B181B88BB62B86AFFF710FB28
:102D80000022314BFEF77AF802000B001000190008
:102D9000FFF7A4FB031C7B62786AFFF757FB020076
:102DA0000B002A491A4805F08BF8194B1800FDF75B
:102DB000ABF903009AB216491648642302F0BAFC34
:102DC00022217B180F4AD2891A807B181B88FB614D
:102DD000F869FFF7E5FA00221B4BFEF74FF80200F7
:102DE0000B0010001900FFF779FB031CBB61B869E9
:102DF0002EE0C0465403002044020020940300202B
:102E0000D8B900089C03002000002440F4B9000851
:102E1000BC030020CC02002008BA000818BA000841
:102E20002CBA00083CBA000850BA000860BA000882
:102E3000000059407CBA000890BA0008A0BA000807
:102E4000B8BA0008D0BA000800408F40ECBA0008B9
:102E5000FFF7FCFA02000B0039493A4805F030F858
:102E6000384B1800FDF750F903009AB2354936483F
:102E7000642302F05FFC16217B18344A128A1A8000
:102E80007B181B883B613869FFF78AFA0022304BB8
:102E9000FDF7F4FF02000B0010001900FFF71EFB06
:102EA000031CFB60F868FFF7D1FA02000B00294908
:102EB000244805F005F8234B1800FDF725F9030019
:102EC0009AB220492048642302F034FC0A2004F01E
:102ED0008DFF214B180004F0E9FF0A217B181B4AE3
:102EE000528A1A807B181B887B607868FFF758FA33
:102EF0000022174BFDF7C2FF02000B001000190063
:102F0000FFF7ECFA031C3B603868FFF79FFA0200FA
:102F10000B0012490B4804F0D3FF0A4B1800FDF7D1
:102F2000F3F803009AB207490748642302F002FC51
:102F30000B4B180004F0BAFFC82000F081FC9CE5A0
:102F400004BB0008BC030020CC0200209C0300202E
:102F500000408F401CBB000834BB000854BB000875
:102F600070BB000890B59FB000AF40243B1918001B
:102F700038231A00002105F0B5F82C23FB1818009F
:102F800014231A00002105F0ADF83B1D180028237A
:102F90001A00002105F0A6F8294B1B68294A1A409F
:102FA000274B802109010A431A6021007B18022265
:102FB0001A607B180122DA607B1810221A617B18D4
:102FC00002229A627B180022DA627B188022D202E7
:102FD0001A637B188022D2035A637B18180001F011
:102FE000BFFB031E01D000F06FF92C217B180F22CC
:102FF0001A607B1803225A607B1800229A607B18A3
:103000000022DA607B1800221A617B180121180067
:1030100001F07AFF031E01D000F056F93B1D082293
:103020001A603B1D00229A613B1D180002F090F9C6
:10303000031E01D000F048F9C046BD461FB090BD48
:1030400000700040FFE7FFFF80B500AF1B4B1C4A3C
:103050001A601A4B1B4A5A60184B00229A60174B91
:103060000122DA60154B00221A61144B00225A61CA
:10307000124B00229A61114B0022DA610F4B0022A1
:103080001A620E4B180000F001FF031E01D000F081
:103090001BF90A4B0021180001F0CAFA031E01D0E7
:1030A00000F012F9054B0021180001F00DFB031E82
:1030B00001D000F009F9C046BD4680BDF0010020F6
:1030C00000540040BB7C700080B500AF154B164A21
:1030D0001A60144B962292015A60124B00229A6099
:1030E000104B0022DA600F4B00221A610D4B0C22AC
:1030F0005A610C4B00229A610A4B0022DA61094B9B
:1031000000221A62074B00225A620648002300225E
:10311000002103F041FE031E01D000F0D5F8C046A7
:10312000BD4680BD44020020004C004080B500AF89
:10313000144B154A1A60134B962292015A60114B98
:1031400000229A600F4B0022DA600E4B00221A61B7
:103150000C4B0C225A610B4B00229A61094B002246
:10316000DA61084B00221A62064B00225A62054BB4
:10317000180002F08BFA031E01D000F0A5F8C0463B
:10318000BD4680BDCC0200200050004090B58BB001
:1031900000AF14243B19180014231A00002104F076
:1031A000A1FF454BDA6A444B80210A43DA62424B65
:1031B000DB6A802213403B613B693F4BDA6A3E4B3E
:1031C00002210A43DA623C4BDB6A02221340FB60B5
:1031D000FB68394BDA6A384B10210A43DA62364B06
:1031E000DB6A10221340BB60BB68334BDA6A324B98
:1031F00004210A43DA62304BDB6A042213407B600D
:103200007B682D4BDA6A2C4B01210A43DA622A4B88
:10321000DB6A012213403B603B68284B00220621F9
:10322000180000F015FE264B00228021180000F047
:103230000FFEE0235B0023480022190000F008FE87
:103240003B1906221A603B1901225A603B190022E1
:103250009A603B190022DA603B19184A19001000E5
:1032600000F078FC3B1980221A603B1901225A6059
:103270003B1900229A603B190022DA603B19104A80
:103280001900100000F066FC21007B18E0225200BB
:103290001A607B1801225A607B1800229A607B1802
:1032A0000022DA607B18074A1900100000F052FC77
:1032B000C046BD460BB090BD001002400004005057
:1032C000001000500008005080B500AF72B6C04634
:1032D000FEE7000080B584B000AF78600A00BB1C38
:1032E0001A800F23FB18FF221A700E23FB18FF22EF
:1032F0001A7019E07B685A1C7A601A780E203B1805
:103300001B785340DBB2BB60134ABB68D3181978F3
:103310003B180F203A1812784A401A703B180F4990
:10332000BA688A1812781A70BB1C1B88BA1C591EFE
:103330001180002BDED10F23FB181B781B021AB261
:103340000E23FB181B781BB213431BB29BB2180051
:10335000BD4604B080BDC046B4BB0008B4BC000884
:1033600080B500AF074B5A6B064B01210A435A63E5
:10337000044B9A6B034B802149050A439A63C0466C
:10338000BD4680BD0010024090B589B000AF7860A6
:103390000C243B19180014231A00002104F0A2FE8B
:1033A0007B681B68174A934228D1174BDA6A164B81
:1033B00002210A43DA62144BDB6A02221340BB602B
:1033C000BB6821007B18C0221A607B1812225A6049
:1033D0007B1800229A607B180322DA607B18012296
:1033E0001A617B18094A1900100000F0B3FB064B64
:1033F0009A6B054B802189030A439A63C046BD46F8
:1034000009B090BD0054004000100240000400507C
:1034100090B58BB000AF786014243B1918001423CA
:103420001A00002104F05EFE7B681B68494A934243
:1034300055D1494B9A6B484B802109030A439A6343
:10344000454BDA6A444B01210A43DA62424BDB6A9C
:10345000012213403B613B693F4BDA6A3E4B04213A
:103460000A43DA623C4BDB6A04221340FB60FB68D0
:103470003B19802212021A603B1902225A603B1942
:1034800000229A603B190322DA603B1906221A6176
:103490003A19A023DB051100180000F05BFB2100A6
:1034A0007B18C02212011A607B1802225A607B1816
:1034B00000229A607B180322DA607B1806221A61C8
:1034C0007B18264A1900100000F044FB002200215E
:1034D0000E2000F085FA0E2000F097FA35E07B68A8
:1034E0001B681F4A934230D11B4B9A6B1A4B8021A9
:1034F00049030A439A63184BDA6A174B02210A43BD
:10350000DA62154BDB6A02221340BB60BB681421F0
:103510007B1818221A607B1802225A607B1800223E
:103520009A607B180322DA607B1806221A617B18E6
:103530000C4A1900100000F00DFB002200210E20A3
:1035400000F04EFA0E2000F060FAC046BD460BB007
:1035500090BDC046004C00400010024000080050E2
:10356000005000400004005080B500AFFEE780B579
:1035700000AFFEE780B500AFC046BD4680BD80B558
:1035800000AFC046BD4680BD80B500AF00F03CF93D
:10359000C046BD4680BD000080B500AF054B180099
:1035A00002F068F9044B180002F064F9C046BD4609
:1035B00080BDC04644020020CC02002080B500AF90
:1035C00001231800BD4680BD80B582B000AF786091
:1035D000396004F0E1FD030016221A6001235B420A
:1035E0001800BD4602B080BD80B582B000AF7860E3
:1035F00001235A427B6811001800FFF7E5FFFEE740
:1036000080B586B000AFF860B9607A6000237B6156
:103610000AE000E000BF0100BB685A1CBA60CAB2F1
:103620001A707B6901337B617A697B689A42F0DBAF
:103630007B681800BD4606B080BD80B582B000AF83
:10364000786001235B421800BD4602B080BD80B5A2
:1036500082B000AF786039603B68802292015A6086
:1036600000231800BD4602B080BD80B582B000AF17
:10367000786001231800BD4602B080BD80B584B0DB
:1036800000AFF860B9607A6000231800BD4604B04E
:1036900080BD000080B586B000AF7860144A154B3D
:1036A000D31A7B617B693B61134B1B68002B02D1F2
:1036B000114B124A1A60104B1A687B68D3183A698A
:1036C0009A4207D204F068FD03000C221A6001231D
:1036D0005B4209E0084B1B68FB60074B1A687B687C
:1036E000D218054B1A60FB681800BD4606B080BDB5
:1036F0000050002000040000E403002038050020F2
:1037000080B500AFC046BD4680BD00000D4885466F
:10371000FFF7F6FF0C480D490D4A002302E0D4588C
:10372000C4500433C4188C42F9D30A4A0A4C00230B
:1037300001E013600432A242FBD304F033FDFFF733
:103740005FF9FEE70050002000000020D4010020B7
:1037500058C20008D401002038050020FEE7000010
:1037600080B582B000AFFB1D00221A700B4B1A68A7
:103770000A4B40210A431A60032000F011F8031E8F
:1037800003D0FB1D01221A7001E0FFF7E9FDFB1DCC
:103790001B781800BD4602B080BDC0460020024024
:1037A00090B583B000AF7860144B1C68144B1B7845
:1037B0001900FA239800FCF7C3FC0300190020004D
:1037C000FCF7BEFC0300180000F02FF9031E01D027
:1037D00001230FE07B68032B0BD8796801235B4240
:1037E0000022180000F0FCF8064B7A681A600023EB
:1037F00000E001231800BD4603B090BD000000208A
:10380000080000200400002080B500AF054B1B78A5
:103810001A00054B1B68D218034B1A60C046BD4600
:1038200080BDC04608000020E803002080B500AF3E
:10383000024B1B681800BD4680BDC046E80300204F
:1038400080B584B000AF7860FFF7F0FF0300BB6085
:103850007B68FB60FB68013305D00A4B1B781A00BC
:10386000FB689B18FB60C046FFF7E0FF0200BB68E7
:10387000D31AFA689A42F7D8C046C046BD4604B08B
:1038800080BDC0460800002080B582B000AF0200B5
:10389000FB1D1A70FB1D1B787F2B09D8FB1D1B78A5
:1038A0001A001F231A40044B012191400A001A609C
:1038B000C046BD4602B080BD00E100E090B583B0D7
:1038C00000AF02003960FB1D1A70FB1D1B787F2BB7
:1038D00028D82F4AFB1D1B785BB29B08C0339B0086
:1038E0009B58FA1D1278110003220A40D200FF21D2
:1038F00091400A00D2431A4011003B689B01FF220D
:103900001A40FB1D1B78180003230340DB009A407C
:103910001F48FB1D1B785BB29B080A43C0339B000A
:103920001A5031E01B4AFB1D1B7819000F230B4076
:10393000083B9B0806339B00D31804331B68FA1D11
:103940001278110003220A40D200FF2191400A00A0
:10395000D2431A4011003B689B01FF221A40FB1D15
:103960001B78180003230340DB009A400948FB1D25
:103970001B781C000F232340083B9B080A43063397
:103980009B00C31804331A60C046BD4603B090BD07
:1039900000E100E000ED00E080B582B000AF7860AB
:1039A0007B685A1E80235B049A4201D3012310E0F6
:1039B0000A4B7A68013A5A6001235B4203211800DE
:1039C000FFF77CFF054B00229A60044B07221A6028
:1039D00000231800BD4602B080BDC04610E000E0E4
:1039E00080B584B000AFB9607A600F217B18021CEB
:1039F0001A70BA687B181B785BB211001800FFF7C9
:103A00005DFFC046BD4604B080BD80B582B000AF4A
:103A10000200FB1D1A70FB1D1B785BB21800FFF73C
:103A200033FFC046BD4602B080BD80B582B000AF56
:103A300078607B681800FFF7AFFF03001800BD46F1
:103A400002B080BD80B584B000AF78600F23FB1852
:103A500000221A707B6825229B5CDBB2022B08D007
:103A60007B680422DA637B682422002199540123B5
:103A700024E07B681B681A687B681B680E218A43F8
:103A80001A607B681B681A687B681B6801218A437F
:103A90001A607B685B6C1C221A407B681B6C0121DE
:103AA00091400A005A607B682522012199547B6865
:103AB0002422002199540F23FB181B781800BD46BF
:103AC00004B080BD80B584B000AF78600F217B1852
:103AD00000221A707B6825229B5CDBB2022B06D089
:103AE0007B680422DA637B1801221A702AE07B6863
:103AF0001B681A687B681B680E218A431A607B6802
:103B00001B681A687B681B6801218A431A607B68FE
:103B10005B6C1C221A407B681B6C012191400A00DF
:103B20005A607B682522012199547B682422002158
:103B300099547B689B6B002B04D07B689B6B7A68E5
:103B4000100098470F23FB181B781800BD4604B0DF
:103B500080BD000080B586B000AF7860396000237A
:103B60007B610023FB6000233B6155E13B681B68E0
:103B700001217A6991400A001340FB60FB68002B29
:103B800000D146E13B685B6803221340012B05D05E
:103B90003B685B6803221340022B30D17B689B6833
:103BA0003B617B695B0003229A401300DA433B6967
:103BB00013403B613B68DA687B695B009A40130005
:103BC0003A6913433B617B683A699A607B685B683A
:103BD0003B6101227B699A401300DA433B69134041
:103BE0003B613B685B681B0901221A407B699A4074
:103BF00013003A6913433B617B683A695A603B683A
:103C00005B6803221340032B17D07B68DB683B61A2
:103C10007B695B0003229A401300DA433B6913403F
:103C20003B613B689A687B695B009A4013003A6984
:103C300013433B617B683A69DA603B685B68032247
:103C40001340022B23D17B69DA087B68083292008B
:103C5000D3583B617B69072213409B000F229A4097
:103C60001300DA433B6913403B613B681A697B6987
:103C700007210B409B009A4013003A6913433B61B4
:103C80007B69DA087B68083292003969D1507B6819
:103C90001B683B617B695B0003229A401300DA4397
:103CA0003B6913403B613B685B6803221A407B69B8
:103CB0005B009A4013003A6913433B617B683A69A1
:103CC0001A603B685A68C0239B02134000D1A0E0F1
:103CD000574B5A6B564B01210A435A63554A7B692D
:103CE0009B0802339B009B583B617B690322134076
:103CF0009B000F229A401300DA433B6913403B615B
:103D00007A68A023DB059A421FD07B684A4A934217
:103D100019D07B68494A934213D07B68484A934242
:103D20000DD07B68474A934207D07B68464A93424E
:103D300001D105230AE0062308E0042306E003235B
:103D400004E0022302E0012300E000237A6903215A
:103D50000A40920093403A6913433B6135497B69BD
:103D60009B0802339B003A695A50384B9B683B6171
:103D7000FB68DA433B6913403B613B685A68802328
:103D80005B03134003D03A69FB6813433B612F4B3D
:103D90003A699A602D4BDB683B61FB68DA433B690B
:103DA00013403B613B685A6880239B03134003D058
:103DB0003A69FB6813433B61244B3A69DA60234B51
:103DC0005B683B61FB68DA433B6913403B613B68DE
:103DD0005A6880239B02134003D03A69FB6813435F
:103DE0003B611A4B3A695A60184B1B683B61FB6890
:103DF000DA433B6913403B613B685A6880235B02AE
:103E0000134003D03A69FB6813433B610F4B3A6997
:103E10001A607B6901337B613B681A687B69DA4011
:103E2000131E00D0A2E6C046C046BD4606B080BD07
:103E30000010024000000140000400500008005043
:103E4000000C005000100050001C00500004014005
:103E500080B582B000AF786008001100BB1C021C66
:103E60001A807B1C0A1C1A707B1C1B78002B04D048
:103E7000BB1C1A887B689A6103E0BB1C1A887B68AC
:103E80009A62C046BD4602B080BD000080B582B0D7
:103E900000AF78607B68002B01D1012382E07B6852
:103EA00041229B5CDBB2002B07D17B6840220021C2
:103EB00099547B681800FFF767FA7B684122242138
:103EC00099547B681B681A687B681B6801218A43C8
:103ED0001A607B685A687B681B6834490A401A611B
:103EE0007B681B689A687B681B6831490A409A6046
:103EF0007B68DB68012B08D17B689A687B681B684C
:103F0000802109020A439A6007E07B689A687B680F
:103F10001B68842109020A439A607B68DB68022BD4
:103F200004D17B681B68802212015A607B681B6881
:103F30005A687B681B681F490A435A607B681B6884
:103F4000DA687B681B681A490A40DA607B681A697C
:103F50007B685B691A4311007B689B691A027B6866
:103F60001B680A43DA607B68D9697B681A6A7B68D8
:103F70001B680A431A607B681B681A687B681B68A9
:103F800001210A431A607B6800225A647B6841223F
:103F9000202199547B6800221A637B684222002109
:103FA000995400231800BD4602B080BDFFFFFFF00A
:103FB000FF7FFFFF0080000290B589B002AFF8607C
:103FC00008007A6019000A23FB18021C1A800823D3
:103FD000FB180A1C1A80FB6841229B5CDBB2202B79
:103FE00000D0E7E0FB6840229B5C012B01D102235B
:103FF000E1E0FB68402201219954FFF717FC030020
:104000007B6180231902F8687B69009319230122E0
:1040100000F0FCF8031E01D00123CCE0FB68412234
:1040200021219954FB68422210219954FB680022F7
:104030005A64FB687A685A62FB680822BA181288C8
:104040005A85FB6800225A63FB685B8D9BB2FF2B8D
:1040500011D9FB68FF221A85FB681B8DDAB2802319
:104060005C040A23FB181988F868554B0093230059
:1040700000F0A4FA75E0FB685B8D9AB2FB681A85C4
:10408000FB681B8DDAB280239C040A23FB18198875
:10409000F8684B4B0093230000F090FA61E07A69D6
:1040A000B96AFB68180000F0FFF8031E01D0012375
:1040B00081E0FB685B6A1A78FB681B689A62FB68A0
:1040C0005B6A5A1CFB685A62FB685B8D9BB2013BC2
:1040D0009AB2FB685A85FB681B8D013B9AB2FB685C
:1040E0001A85FB685B8D9BB2002B3AD0FB681B8D59
:1040F000002B36D1BA6AF8687B690093130000225E
:10410000802100F083F8031E01D0012353E0FB68F7
:104110005B8D9BB2FF2B11D9FB68FF221A85FB68D0
:104120001B8DDAB280235C040A23FB181988F86817
:1041300000230093230000F041FA12E0FB685B8D3E
:104140009AB2FB681A85FB681B8DDAB280239C0447
:104150000A23FB181988F86800230093230000F055
:104160002DFAFB685B8D9BB2002B98D17A69B96AF6
:10417000FB68180000F0DEF8031E01D001231AE0EE
:10418000FB681B682022DA61FB681B685A68FB68C1
:104190001B680C490A405A60FB684122202199544F
:1041A000FB68422200219954FB6840220021995467
:1041B000002300E002231800BD4607B090BDC046B2
:1041C0000020008000E800FE80B582B000AF78607B
:1041D0007B681B689B6902221340022B03D17B681A
:1041E0001B6800229A627B681B689B69012213404E
:1041F000012B07D07B681B689A697B681B680121CB
:104200000A439A61C046BD4602B080BD80B584B005
:1042100000AFF860B9603B60FB1D1A7030E03B688E
:1042200001332DD0FFF702FB0200BB69D31A3A68B5
:104230009A4202D33B68002B22D1FB681B689B6922
:10424000BA681340BA68D31A5A425341DBB21A0013
:10425000FB1D1B789A4213D1FB685B6C20221A432A
:10426000FB685A64FB68412220219954FB68422272
:1042700000219954FB6840220021995401230FE04A
:10428000FB681B689B69BA681340BA68D31A5A4224
:104290005341DBB21A00FB1D1B789A42BFD00023AA
:1042A0001800BD4604B080BD80B584B000AFF86092
:1042B000B9607A6032E07A68B968FB68180000F08B
:1042C0007DF8031E01D0012330E0BB68013325D007
:1042D000FFF7ACFA02007B68D31ABA689A4202D39D
:1042E000BB68002B1AD1FB681B689B690222134034
:1042F000022B13D0FB685B6C20221A43FB685A64C4
:10430000FB68412220219954FB68422200219954E4
:10431000FB68402200219954012307E0FB681B68D9
:104320009B6902221340022BC5D100231800BD4611
:1043300004B080BD80B584B000AFF860B9607A6029
:104340002FE07A68B968FB68180000F037F8031EA0
:1043500001D001232DE0FFF769FA02007B68D31A30
:10436000BA689A4202D3BB68002B1AD1FB681B685B
:104370009B6920221340202B13D0FB685B6C20220A
:104380001A43FB685A64FB68412220219954FB6858
:10439000422200219954FB684022002199540123B4
:1043A00007E0FB681B689B6920221340202BC8D1C3
:1043B00000231800BD4604B080BD000090B58BB04E
:1043C00000AFF860B9607A602723FB1800221A70EA
:1043D000FB681B689B69BB6100233B627B68FB61D8
:1043E000BB691022134000D182E0FB681B681022D9
:1043F000DA6160E027243B193A1912781A70BB6819
:10440000013358D0FFF712FA0200FB69D31ABA68D9
:104410009A4206D33B193A1912781A70BB68002BDE
:1044200049D1FB681B685A688023DB0113407B611C
:1044300013203B18FA684221525C1A70FB681B6813
:104440009A6980231B021A4080231B029A4226D1BC
:104450007A698023DB019A4221D03B181B78202BFC
:104460001DD0FB681B685A68FB681B688021C90166
:104470000A435A60FFF7DAF90300FB610FE0FFF728
:10448000D5F90200FB69D31A192B08D93B6A2022FF
:1044900013433B622723FB1801221A700BE0FB68D1
:1044A0001B689B692022134027217A187918097804
:1044B0001170202BE3D1FB681B689B6920221340FD
:1044C000202B04D02723FB181B78002B92D0272306
:1044D000FB181B78002B03D1FB681B682022DA61D4
:1044E0003B6A042213433B622723FB1801221A7004
:1044F000FB681B689B69BB61BA6980235B00134042
:104500000CD03B6A012213433B62FB681B6880228C
:104510005200DA612723FB1801221A70BA6980233E
:10452000DB0013400CD03B6A082213433B62FB685C
:104530001B688022D200DA612723FB1801221A703F
:10454000BA6980239B0013400CD03B6A02221343BC
:104550003B62FB681B6880229200DA612723FB180C
:1045600001221A702723FB181B78002B1DD0FB6833
:104570001800FFF729FEFB681B685A68FB681B6878
:104580000D490A405A60FB685A6C3B6A1A43FB6843
:104590005A64FB68412220219954FB684222002181
:1045A0009954FB684022002199542723FB181B785B
:1045B0001800BD460BB090BD00E800FE90B587B076
:1045C00000AFF860080011007B600A243B19021C50
:1045D0001A8009203B180A1C1A703B191B889B057E
:1045E0009A0D3B181B781904FF231B040B401A4338
:1045F0007B681A43BB6A13435B005B087B61FB6803
:104600001B685B68BA6A510D8022D2000A400749D4
:104610000A43D2431A401100FB681B687A690A43B7
:104620005A60C046BD4607B090BDC046FF63FF0359
:1046300080B582B000AF786039607B6841229B5CB6
:10464000DBB2202B38D17B6840229B5C012B01D14F
:10465000022332E07B684022012199547B68412289
:10466000242199547B681B681A687B681B680121A8
:104670008A431A607B681B681A687B681B6811494B
:104680000A401A607B681B6819687B681B683A6877
:104690000A431A607B681B681A687B681B680121E3
:1046A0000A431A607B684122202199547B6840228A
:1046B00000219954002300E002231800BD4602B0F7
:1046C00080BDC046FFEFFFFF80B584B000AF7860CB
:1046D00039607B6841229B5CDBB2202B39D17B683F
:1046E00040229B5C012B01D1022333E07B684022F6
:1046F000012199547B684122242199547B681B68CD
:104700001A687B681B6801218A431A607B681B68F2
:104710001B68FB60FB68114A1340FB603B681B028F
:10472000FA681343FB607B681B68FA681A607B6851
:104730001B681A687B681B6801210A431A607B6842
:104740004122202199547B68402200219954002362
:1047500000E002231800BD4604B080BDFFF0FFFF5B
:10476000B0B58AB000AF78607B68002B02D101231E
:1047700000F0BFFBC94BDB680C221340FB61C74B49
:10478000DA6880235B021340BB617B681B680122EF
:10479000134000D17EE0FB69082B07D0FB690C2B8E
:1047A00012D1BA6980235B029A420DD1BB4B1A68C1
:1047B00080239B02134000D16BE07B685B68002B79
:1047C00067D1012300F095FB7B685A6880235B0268
:1047D0009A4207D1B14B1A68B04B802149020A4373
:1047E0001A6027E07B685A68A023DB029A420ED148
:1047F000AA4B1A68A94B8021C9020A431A60A74B29
:104800001A68A64B802149020A431A6012E0A34BA2
:104810001A68A24BA2490A401A60A04B1A6880236A
:104820005B021340FB60FB689C4B1A689B4B9D49E5
:104830000A401A607B685B68002B15D0FEF7F6FF14
:1048400003007B6109E0FEF7F1FF02007B69D31AE8
:10485000642B02D9032300F04CFB904B1A68802391
:104860009B021340EFD015E0FEF7E0FF03007B61F1
:1048700008E0FEF7DBFF02007B69D31A642B01D945
:10488000032336E3854B1A6880239B021340F0D143
:1048900000E0C0467B681B680222134000D199E00B
:1048A0007B68DB687B627B6A2022134009D07B4BEC
:1048B0001A687A4B20210A431A607B6A20229343AC
:1048C0007B62FB69042B05D0FB690C2B3ED1BB69D5
:1048D000002B3BD1714B1B680422134004D07B6A30
:1048E000002B01D1012304E36C4B5B686E4A13403B
:1048F00019007B681B691A02684B0A435A60674BB0
:104900001B68092293431900644B7A6A0A431A60B0
:1049100000F042FC0100614BDB681B090F221340D1
:10492000624AD35C0A00DA40614B1A60614B1B6833
:1049300013257C191800FEF733FF030023707B1941
:104940001B78002B46D07B191B78D2E27B6A002BA8
:1049500027D0524B1B680922934319004F4B7A6AA8
:104960000A431A60FEF762FF03007B6108E0FEF76E
:104970005DFF02007B69D31A022B01D90323B8E241
:10498000464B1B6804221340F1D0444B5B68464AF7
:10499000134019007B681B691A02404B0A435A6096
:1049A00018E03E4B1A683D4B01218A431A60FEF71E
:1049B0003DFF03007B6108E0FEF738FF02007B69E2
:1049C000D31A022B01D9032393E2344B1B68042230
:1049D0001340F1D17B681B681022134000D1A2E084
:1049E000FB69002B40D12D4B1A6880239B0013409C
:1049F00005D07B68DB69002B01D1012379E2274BCD
:104A00005B682D4A134019007B685A6A234B0A439E
:104A10005A60224B5B681B02190A7B681B6A1A06E4
:104A20001E4B0A435A607B685B6A5B0B0133802232
:104A300012029A40194BDB681B090F210B401B49DE
:104A4000CB5CDA401A4B1A601A4B1B6813257C1991
:104A50001800FEF7A5FE030023707B191B78002BBE
:104A600061D07B191B7844E27B68DB69002B40D066
:104A70000A4B1A68094B802149000A431A60FEF765
:104A8000D5FE03007B6119E0FEF7D0FE02007B69D2
:104A9000D31A022B12D903232BE2C0460010024086
:104AA000FFFFFEFFFFFFFBFFFFE0FFFFB4BD0008BD
:104AB0000000002004000020FF1FFFFFCA4B1A68FF
:104AC00080239B001340DFD0C74B5B68C74A13406D
:104AD00019007B685A6AC44B0A435A60C24B5B6830
:104AE0001B02190A7B681B6A1A06BF4B0A435A60ED
:104AF00019E0BD4B1A68BC4BBD490A401A60FEF76D
:104B000095FE03007B6108E0FEF790FE02007B69E2
:104B1000D31A022B01D90323EBE1B34B1A6880238C
:104B20009B001340F0D17B681B680822134036D0ED
:104B30007B685B69002B19D0AB4B1A6DAA4B012126
:104B40000A431A65FEF772FE03007B6108E0FEF778
:104B50006DFE02007B69D31A022B01D90323C8E141
:104B6000A14B1B6D02221340F1D018E09E4B1A6D31
:104B70009D4B01218A431A65FEF758FE03007B61B5
:104B800008E0FEF753FE02007B69D31A022B01D91D
:104B90000323AEE1944B1B6D02221340F1D17B68DD
:104BA0001B680422134000D1AEE023203B180022F2
:104BB0001A708D4B9A6B80235B05134009D18A4B89
:104BC0009A6B894B802149050A439A633B1801225D
:104BD0001A70884B1A6880235B0013401AD1854BEA
:104BE0001A68844B802149000A431A60FEF71EFEB2
:104BF00003007B6108E0FEF719FE02007B69D31A0F
:104C0000642B01D9032374E17A4B1A6880235B007B
:104C10001340F0D07B689A6880235B009A4207D1EA
:104C2000714B1A6D704B802149000A431A6531E0BF
:104C30007B689B68002B0CD16B4B1A6D6A4B6C49DF
:104C40000A401A65684B1A6D674B6B490A401A6532
:104C500020E07B689A68A023DB009A420ED1624B69
:104C60001A6D614B8021C9000A431A655E4B1A6DAB
:104C70005D4B802149000A431A650BE05A4B1A6DBF
:104C8000594B5B490A401A65574B1A6D564B5A49A6
:104C90000A401A657B689B68002B15D0FEF7C6FD9D
:104CA00003007B6109E0FEF7C1FD02007B69D31AB6
:104CB000524A934201D903231BE14B4B1A6D8023C7
:104CC0009B001340EFD014E0FEF7B0FD03007B61C2
:104CD00009E0FEF7ABFD02007B69D31A474A934215
:104CE00001D9032305E1404B1A6D80239B0013403B
:104CF000EFD12323FB181B78012B05D13A4B9A6B7C
:104D0000394B3F490A409A637B681B682022134055
:104D100049D07B689B69002B26D0334B9A68324B75
:104D200001210A439A60304B5A6B2F4B01210A43F1
:104D30005A63344B1A6A334B802189010A431A6241
:104D4000FEF774FD03007B6108E0FEF76FFD0200D3
:104D50007B69D31A022B01D90323CAE0224B9B683B
:104D600002221340F1D01EE01F4B9A681E4B012116
:104D70008A439A60234B1A6A224B23490A401A62DB
:104D8000FEF754FD03007B6108E0FEF74FFD0200D3
:104D90007B69D31A022B01D90323AAE0124B9B682B
:104DA00002221340F1D17B689B6A002B00D19FE067
:104DB000FB690C2B00D178E07B689B6A022B59D1F0
:104DC000094B1A68084B11490A401A60FEF72EFD7C
:104DD00003007B611CE0FEF729FD02007B69D31A0A
:104DE000022B15D9032384E000100240FF1FFFFFB0
:104DF000FFFEFFFF00700040FFFBFFFF8813000075
:104E0000FFFFFFEF00000140FFDFFFFFFFFFFFFE9E
:104E10003A4B1A6880239B041340DCD1374BDB6884
:104E2000374A134019007B68DA6A7B681B6B1A43A8
:104E30007B685B6B1A43314B0A43DA602F4B1A686D
:104E40002E4B802149040A431A60FEF7EFFC030051
:104E50007B6108E0FEF7EAFC02007B69D31A022BB3
:104E600001D9032345E0254B1A6880239B04134096
:104E7000F0D03DE0214B1A68204B22490A401A60CD
:104E8000FEF7D4FC03007B6108E0FEF7CFFC0200D4
:104E90007B69D31A022B01D903232AE0174B1A6826
:104EA00080239B041340F0D122E07B689B6A012B96
:104EB00001D101231DE0114BDB68BB61BA6980237E
:104EC0005B021A407B68DB6A9A420FD1BA69F02311
:104ED0009B031A407B681B6B9A4207D1BA69C023B7
:104EE0001B041A407B685B6B9A4201D0012300E0EF
:104EF00000231800BD460AB0B0BDC04600100240F5
:104F0000FFFF02FFFFFFFFFEB0B584B000AF786087
:104F100039607B68002B01D1012328E1964B1B6887
:104F2000012213403A689A421ED9934B1B68012212
:104F300093431900904B3A680A431A60FEF776FCD7
:104F40000300FB6009E0FEF771FC0200FB68D31A66
:104F50008A4A934201D9032309E1874B1B68012246
:104F600013403A689A42EED17B681B6802221340D4
:104F700009D0834BDB68F022934319007B689A6861
:104F80007F4B0A43DA607B681B680122134000D123
:104F900089E07B685B68022B07D1794B1A68802314
:104FA0009B02134020D10123E1E07B685B68032B67
:104FB00007D1734B1A6880239B04134014D101233B
:104FC000D5E07B685B68012B06D16D4B1B68042222
:104FD000134009D10123CAE0694B1A6880239B0062
:104FE000134001D10123C2E0654BDB6803229343E8
:104FF00019007B685A68624B0A43DA60FEF716FCB8
:105000000300FB607B685B68022B11D109E0FEF7AF
:105010000DFC0200FB68D31A584A934201D90323BE
:10502000A5E0574BDB680C221340082BEFD13AE088
:105030007B685B68032B11D109E0FEF7F7FB0200E8
:10504000FB68D31A4D4A934201D903238FE04C4B9E
:10505000DB680C2213400C2BEFD124E07B685B68EB
:10506000012B1BD109E0FEF7E1FB0200FB68D31A1C
:10507000424A934201D9032379E0414BDB680C2279
:105080001340042BEFD10EE0FEF7D0FB0200FB68CB
:10509000D31A3A4A934201D9032368E0384BDB68BC
:1050A0000C221340F0D1344B1B68012213403A68A4
:1050B0009A421ED2304B1B680122934319002E4B9B
:1050C0003A680A431A60FEF7B1FB0300FB6009E08F
:1050D000FEF7ACFB0200FB68D31A284A934201D9C1
:1050E000032344E0244B1B68012213403A689A4290
:1050F000EED17B681B680422134009D0204BDB688B
:10510000204A134019007B68DA681D4B0A43DA60B5
:105110007B681B68082213400AD0194BDB681A4AC7
:10512000134019007B681B69DA00154B0A43DA60EB
:1051300000F032F80100124BDB681B090F2213400C
:10514000124AD35C0A00DA40114B1A60114B1B68FB
:105150000B257C191800FEF723FB030023707B1935
:105160001B78002B02D07B191B7800E0002318006D
:10517000BD4604B0B0BDC046002002408813000008
:1051800000100240FFF8FFFFFFC7FFFFB4BD00089B
:105190000000002004000020B0B58EB000AF4C4BE2
:1051A000DB68FB62FA6A0C2313400C2B14D000D985
:1051B0007BE0042B02D0082B0BD076E0444B1B681D
:1051C0001022134002D0434B3B637CE0424B3B63D5
:1051D00079E0424B3B6376E0FB6A9A0C0F231A405E
:1051E0003F4B9B5CBB62FB6A9A0D03231340013368
:1051F0007B62374BDA6880235B0213401AD0BB6AAC
:10520000BB610023FB61354A0023B869F969FBF7EC
:105210006BF902000B00100019007B6A3B61002350
:105220007B613A697B69FBF73FF902000B001300D1
:105230007B6337E0264B1B68102213401AD0BB6AF1
:10524000BB600023FB60234A0023B868F968FBF7C2
:105250004BF902000B00100019007B6A3B60002331
:105260007B603A687B68FBF71FF902000B001300B4
:105270007B6317E0BB6A180000231900164A00235D
:10528000FBF732F902000B00100019007B6A1C00CA
:1052900000231D0022002B00FBF706F902000B0083
:1052A00013007B637B6B3B630DE0094B5B685B0B1F
:1052B000072213403B623B6A0133802212029A406C
:1052C00013003B63C0463B6B1800BD460EB0B0BD3B
:1052D0000010024000093D000024F40000127A0092
:1052E000CCBD000880B500AF024B1B681800BD465E
:1052F00080BDC0460000002080B500AFFFF7F2FF80
:105300000100064BDB681B0A07221340044AD35CEA
:10531000D9400B001800BD4680BDC04600100240B9
:10532000C4BD000880B500AFFFF7DCFF0100064BED
:10533000DB68DB0A07221340044AD35CD9400B0028
:105340001800BD4680BDC04600100240C4BD000824
:1053500080B586B000AF78601723FB1800221A7062
:105360007B681B682022134006D17B681A68802363
:105370001B01134000D104E1B94B9A6B80235B05FC
:1053800013400AD1B64B9A6BB54B802149050A43AD
:105390009A631723FB1801221A70B24B1A688023F4
:1053A0005B0013401AD1AF4B1A68AE4B8021490005
:1053B0000A431A60FEF73AFA03003B6108E0FEF781
:1053C00035FA02003B69D31A642B01D9032343E168
:1053D000A44B1A6880235B001340F0D0A04B1A68DE
:1053E000C0239B031340FB607B685A68C0239B0368
:1053F0001340FA689A4207D17B689A68C0239B03DE
:105400001340FA689A4213D07B685A68C0239B0203
:105410001A40C0239B029A420AD1914B1A688023FA
:105420009B021A4080239B029A4201D1012313E17F
:105430008B4B1A6DC0239B021340FB60FB68002B53
:1054400049D07B685A68C0239B021340FA689A428D
:1054500004D07B681B68202213400DD17B689A68BA
:10546000C0239B021340FA689A4234D07B681A68C2
:1054700080231B0113402ED0794B1B6D7A4A1340B9
:10548000FB60774B1A6D764B802109030A431A653E
:10549000734B1A6D724B75490A401A65704BFA6866
:1054A0001A65FA6880235B00134014D0FEF7BEF93A
:1054B00003003B6109E0FEF7B9F902003B69D31A2A
:1054C0006B4A934201D90323C6E0654B1A6D8023D2
:1054D0009B001340EFD07B681A6880231B011340A8
:1054E0001FD07B689A68C0239B021A40C0239B028E
:1054F0009A420CD15A4B1B685E4A134019007B68D4
:105500009A68C0239B031A40554B0A431A60544BB8
:10551000196D7B689A68C0239B021A40504B0A435E
:105520001A657B681B68202213401FD07B685A686D
:10553000C0239B021A40C0239B029A420CD1484BC5
:105540001B684C4A134019007B685A68C0239B03B0
:105550001A40434B0A431A60414B196D7B685A68E5
:10556000C0239B021A403E4B0A431A651723FB18BF
:105570001B78012B05D13A4B9A6B394B3E490A40B7
:105580009A637B681B680122134009D0344BDB6CA3
:105590000322934319007B68DA68314B0A43DA64CB
:1055A0007B681B680222134009D02D4BDB6C0C2258
:1055B000934319007B681A69294B0A43DA647B68B4
:1055C0001B680422134009D0254BDB6C2B4A134087
:1055D00019007B685A69224B0A43DA647B681B68AE
:1055E0000822134009D01E4BDB6C254A13401900DA
:1055F0007B689A691A4B0A43DA647B681A688023CD
:105600005B00134009D0164BDB6C174A134019009E
:105610007B68DA69124B0A43DA647B681B684022B4
:10562000134009D00E4BDB6C164A134019007B68FF
:105630005A6A0B4B0A43DA647B681B68802213406A
:1056400009D0074BDB6C104A134019007B681A6ABB
:10565000034B0A43DA6400231800BD4606B080BD40
:105660000010024000700040FFFFFCFFFFFFF7FF4B
:1056700088130000FFFFCFFFFFFFFFEFFFF3FFFFE7
:10568000FFCFFFFFFFFFFFFBFFFFF3FF80B582B0FF
:1056900000AF78607B68002B01D1012344E07B6878
:1056A000DB6F002B07D17B687822002199547B683F
:1056B0001800FDF7ADFE7B682422DA677B681B6863
:1056C0001A687B681B6801218A431A607B6818008E
:1056D00000F0CAFB0300012B01D1012324E07B6809
:1056E0005B6A002B03D07B68180000F05BFE7B68D0
:1056F0001B685A687B681B680D490A405A607B68C2
:105700001B689A687B681B682A218A439A607B68B9
:105710001B681A687B681B6801210A431A607B6852
:10572000180000F0F3FE03001800BD4602B080BD73
:10573000FFB7FFFF80B58AB002AFF860B9603B6089
:10574000BB1D1A80FB68DB6F202B00D08CE0BB6890
:10575000002B03D0BB1D1B88002B01D1012384E04B
:10576000FB689A6880235B019A4209D1FB681B6938
:10577000002B05D1BB680122134001D0012374E046
:10578000FB68842200219950FB682122DA67FEF72A
:105790004DF803007B61FB68BA1D502112885A52F4
:1057A000FB68BA1D522112885A52FB689A688023FE
:1057B0005B019A4208D1FB681B69002B04D10023CE
:1057C000FB61BB68BB6103E0BB68FB610023BB619D
:1057D0002FE07A69F8683B6800931300002280216B
:1057E00000F03CFF031E04D0FB682022DA6703238D
:1057F0003BE0FB69002B0BD1BB691B881A00FB68DF
:105800001B68D205D20D9A62BB690233BB6107E007
:10581000FB691A78FB681B689A62FB690133FB61BC
:10582000FB6852229B5A9BB2013B99B2FB68522201
:105830009952FB6852229B5A9BB2002BC9D17A69BC
:10584000F8683B68009313000022402100F006FF37
:10585000031E04D0FB682022DA67032305E0FB68FF
:105860002022DA67002300E002231800BD4608B0BA
:1058700080BD000090B5ABB000AF78607B681B685E
:10588000DB69A422B9180B607B681B681B68A02029
:1058900039180B607B681B689B689C2179180B602A
:1058A0001100BB181B68994A13409822BC1823604A
:1058B000BB181B68002B14D17B181B6820221340D7
:1058C0000FD03B181B68202213400AD07B689B6EC8
:1058D000002B00D1A0E27B689B6E7A68100098478D
:1058E0009AE29823FB181B68002B00D114E19C233B
:1058F000FB181B680122134006D1A023FB181B686C
:10590000834A134000D107E1A423FB181B6801223E
:10591000134012D0A023FB181A6880235B001340A9
:105920000BD07B681B6801221A627B6884229B581B
:1059300001221A437B6884215A50A423FB181B6858
:105940000222134011D09C23FB181B680122134034
:105950000BD07B681B6802221A627B6884229B58EA
:1059600004221A437B6884215A50A423FB181B6825
:105970000422134011D09C23FB181B680122134002
:105980000BD07B681B6804221A627B6884229B58B8
:1059900002221A437B6884215A50A423FB181B68F7
:1059A0000822134017D0A023FB181B6820221340A5
:1059B00005D19C23FB181B68012213400BD07B6888
:1059C0001B6808221A627B6884229B5808221A43AB
:1059D0007B6884215A50A423FB181A6880231B017A
:1059E000134013D0A023FB181A688023DB04134054
:1059F0000CD07B681B68802212011A627B688422AB
:105A00009B5820221A437B6884215A507B68842249
:105A10009B58002B00D101E2A423FB181B68202215
:105A200013400ED0A023FB181B682022134008D07F
:105A30007B689B6E002B04D07B689B6E7A6810009D
:105A400098477B6884229B5894217A1813607B685E
:105A50001B689B6840221340402B04D07B181B68B6
:105A60002822134047D07B68180000F02BFF7B688A
:105A70001B689B6840221340402B37D1EFF3108303
:105A80003B663B6E90203A18136001237B667B6E69
:105A900083F31088C0467B681B689A687B681B6824
:105AA00040218A439A603B181B68BB66BB6E83F338
:105AB0001088C0467B685B6F002B12D07B685B6FE1
:105AC000144A9A637B685B6F1800FDF7FBFF031EA7
:105AD0001AD07B685B6F9A6B7B685B6F180090478E
