:020000040800F2
:100000000050002099300008D92F0008DB2F00088D
:1000100000000000000000000000000000000000E0
:10002000000000000000000000000000DD2F0008BC
:100030000000000000000000DF2F0008E12F000892
:10004000E9300008E9300008E9300008E93000082C
:10005000E9300008E9300008E9300008E93000081C
:10006000E9300008E9300008E9300008E93000080C
:10007000E9300008E9300008E92F0008E9300008FD
:10008000E9300008E9300008E9300008000000000D
:10009000E9300008E9300008E9300008E9300008DC
:1000A000E9300008E9300008E9300008E9300008CC
:1000B000E9300008E9300008E9300008E9300008BC
:1000C00010B5064C2378002B07D1054B002B02D02E
:1000D000044800E000BF0123237010BDD4010020BC
:1000E000000000004C990008044B10B5002B03D011
:1000F0000349044800E000BF10BDC04600000000F6
:10010000D80100204C9900080023C25C0133002A6A
:10011000FBD1581E7047000002B4714649084900DF
:10012000095649008E4402BC7047C04602B471466D
:1001300049084900095C49008E4402BC7047C0462A
:1001400003B47146490840004900095E49008E44E5
:1001500003BC7047002243088B4274D303098B42CF
:100160005FD3030A8B4244D3030B8B4228D3030C87
:100170008B420DD3FF22090212BA030C8B4202D329
:100180001212090265D0030B8B4219D300E0090A51
:10019000C30B8B4201D3CB03C01A5241830B8B425A
:1001A00001D38B03C01A5241430B8B4201D34B0343
:1001B000C01A5241030B8B4201D30B03C01A5241A8
:1001C000C30A8B4201D3CB02C01A5241830A8B422D
:1001D00001D38B02C01A5241430A8B4201D34B0216
:1001E000C01A5241030A8B4201D30B02C01A52417A
:1001F000CDD2C3098B4201D3CB01C01A524183092E
:100200008B4201D38B01C01A524143098B4201D367
:100210004B01C01A524103098B4201D30B01C01A92
:100220005241C3088B4201D3CB00C01A524183080C
:100230008B4201D38B00C01A524143088B4201D339
:100240004B00C01A5241411A00D201465241104699
:100250007047FFE701B5002000F0F0F802BDC0468E
:100260000029F7D076E7704703460B437FD400227E
:1002700043088B4274D303098B425FD3030A8B423A
:1002800044D3030B8B4228D3030C8B420DD3FF22A4
:10029000090212BA030C8B4202D31212090265D072
:1002A000030B8B4219D300E0090AC30B8B4201D325
:1002B000CB03C01A5241830B8B4201D38B03C01A6C
:1002C0005241430B8B4201D34B03C01A5241030BE3
:1002D0008B4201D30B03C01A5241C30A8B4201D394
:1002E000CB02C01A5241830A8B4201D38B02C01A3F
:1002F0005241430A8B4201D34B02C01A5241030AB6
:100300008B4201D30B02C01A5241CDD2C3098B429A
:1003100001D3CB01C01A524183098B4201D38B0117
:10032000C01A524143098B4201D34B01C01A5241BA
:1003300003098B4201D30B01C01A5241C3088B42FF
:1003400001D3CB00C01A524183088B4201D38B00EA
:10035000C01A524143088B4201D34B00C01A52418C
:10036000411A00D201465241104670475DE0CA0F63
:1003700000D04942031000D34042534000229C4623
:1003800003098B422DD3030A8B4212D3FC2289012D
:1003900012BA030A8B420CD3890192118B4208D303
:1003A000890192118B4204D389013AD0921100E065
:1003B0008909C3098B4201D3CB01C01A5241830979
:1003C0008B4201D38B01C01A524143098B4201D3A6
:1003D0004B01C01A524103098B4201D30B01C01AD1
:1003E0005241C3088B4201D3CB00C01A524183084B
:1003F0008B4201D38B00C01A5241D9D243088B42A1
:1004000001D34B00C01A5241411A00D20146634643
:1004100052415B10104601D34042002B00D54942A7
:10042000704763465B1000D3404201B5002000F0E6
:1004300005F802BD0029F8D016E770477047C0469E
:100440008446100062468C461900634600E0C046B0
:100450001FB501F0B3F8002801D40021C8421FBD28
:1004600010B501F003F84042013010BD10B501F0A5
:10047000A5F8002801DB002010BD012010BDC046FA
:1004800010B501F09BF8002801DD002010BD01200F
:1004900010BDC04610B501F02BF8002801DC00208B
:1004A00010BD012010BDC04610B501F021F8002894
:1004B00001DA002010BD012010BDC046002B11D173
:1004C000002A0FD1002900D1002802D00021C94301
:1004D000080007B4024802A14018029003BDC046BC
:1004E0005DFFFFFF03B4684601B5029800F0A4F871
:1004F000019B9E4602B00CBC7047C046F0B5CE468C
:100500009946030C9C46130447461B0C1D000E0025
:1005100061460404240C80B50700100C4B4365436E
:10052000414360432C0CC01820188C46834203D9E9
:1005300080235B029846C444494679435643030CE2
:100540002D042D0C8919634400044019C918C0BC3E
:10055000B946B046F0BDC04670B500220C4B040051
:100560000D00FFF7A1FF002804D12000290001F0B1
:10057000EBFE70BD064B00222000290001F044FB79
:1005800001F0E2FE80231B069C466044F1E7C04672
:100590000000E04170B505000C0000220023280097
:1005A0002100FFF763FF002808D12800210000F098
:1005B0000FF802000B001000190070BD80231B060D
:1005C000E118280000F004F8002342428B41F2E7D2
:1005D00070B500220B4B0D00040001F053F8FFF73B
:1005E000BBFF060001F016FF0022074B01F04AF89E
:1005F00002000B002000290001F006FBFFF7ACFF12
:10060000310070BD0000F03D0000F04170B5060003
:10061000080001F0CFFE0022064B01F033F80D0078
:100620000400300001F0F6FE2B00220000F0D0F8AC
:1006300070BDC0460000F041F0B557464E464546F5
:10064000DE46E0B504000D009246994683B08B4229
:1006500030D82DD04946504601F0EEFF2900060063
:10066000200001F0E9FF331A9846203B34D49B4622
:1006700053465A46934042461F00534693401E003D
:10068000AF423BD8AF4200D179E05B46A41BBD41ED
:10069000002B00DA76E00022002300920193012370
:1006A0005A4693400193012342469340009329E028
:1006B0008242CFD900220023009201930C9B002B91
:1006C00001D01C605D600098019903B0F0BCBB468E
:1006D000B246A946A046F0BD42469B4620239B1A3F
:1006E0005246DA40414613004A468A4017004246C5
:1006F0001F43534693401E00AF42C3D9002200233C
:10070000009201934346002BD8D0FB0772081A438E
:1007100046467B080EE0AB4201D1A2420CD8A41A97
:100720009D41012024196D410021013E24184D41B5
:10073000002E06D0AB42EED9013E24196D41002EA9
:10074000F8D1009801995B4600196941002B24DB20
:100750002B005A464446D3402A00E2401C005B4628
:100760001500002B2ADB26009E403300260047465A
:10077000BE403200801A9941009001919EE7A34249
:10078000BCD882E74246202300219B1A0022009118
:1007900001920122DA40019285E7424620239B1A0A
:1007A0002A0046469A402300F340444613432A0059
:1007B000E2401C005B461500002BD4DA42462F00B5
:1007C0002023260097409B1ADE403B003343CDE7B1
:1007D000F0B54F464646D6460400C0B51F000B0391
:1007E00010004E005B0ACD0F610F7A001943E30041
:1007F0003C03FF0FBC46640A470F2743760D520D9A
:10080000C000B9468046B71A654500D19BE0002F6D
:1008100000DC84E0002A00D1BEE0C84A964200D144
:1008200024E180224C4612041443A146382F00DDF7
:1008300067E11F2F00DDD6E120224C46D21B9440F9
:10084000A2464446FC4020005446044340469040A3
:10085000421E90414A46FA400443891A1C1BA34297
:10086000924152428B1A9A4653461B0200D4D4E05E
:1008700053465A02530A9A465346002B00D104E1CC
:10088000504601F0BBFE0300083B20222000D21A94
:100890005146D040994002009C400A43B34200DADE
:1008A00002E19B1B591C1F2900DDA7E0202310003B
:1008B00026005B1A9C409840CE40CA40631E9C4173
:1008C0003043924600260443630709D00F23234098
:1008D000042B05D0231DA342A4416442A2441C0062
:1008E00053461B0200D49BE0944B01369E4200D13C
:1008F000B8E053469249E4080B4019005B072343D4
:1009000072054C02240B520D1205ED0722432A43B7
:1009100018001100E0BCBA46B146A846F0BD002F51
:1009200048D0971B002E00D00EE10C001C4300D1D4
:10093000B7E17C1E012F00D126E2804DAF4200D1ED
:10094000D5E1270007E1002F00DCB2E0002A47D004
:100950007A4A964200D189E080224C461204144320
:10096000A146382F6BDC1F2F00DC6EE13A004846B1
:10097000203AD0408446202F07D040224846D21B40
:10098000904002004046104380464046421E90413F
:1009900062460400144357E04A46024300D103E193
:1009A0007A1E012F00D193E1644CA74200D18AE165
:1009B00017003BE7634C721C224200D0E0E00A00C3
:1009C0001A43002E00D074E1002A00D1D0E14A463B
:1009D000024300D0E3E14A07DB081343C90829E0DA
:1009E0004A46024300D17DE17A1E012F00D1E0E0AA
:1009F000524CA74200D166E11700B2E710001F3B3E
:100A0000D840202903D040235B1A9A401443631E28
:100A10009C41002300269A460443630700D055E713
:100A20005246E3085207134352463700D108434A5F
:100A300097421FD009037A050C0B520D64E742461A
:100A40004C461443621E9441E4189C429241524227
:100A500092468A4453461B02DFD5384B01369E42EC
:100A600000D0B3E03200002400234DE74A07DB0842
:100A70001343C9081A000A4300D100E2802424036A
:100A80000C4324032D4A240B3EE7200001F0B6FD61
:100A9000030018331F2B00DCF7E6220008388240E1
:100AA0000024B34200DBFCE6F61A254B1A409246BE
:100AB0000AE7002F2BD0971B002E00D1B8E01F4C67
:100AC000A24200D11CE1802424042143382F00DD00
:100AD0001EE11F2F00DD9EE120260C00F61B1800F2
:100AE000B340B440F8405E1EB341F94004431C4398
:100AF0008944444444459B415B424B449A4616001A
:100B0000A8E742464C461443621E9441A6E60D4CAB
:100B1000721C224200D0A8E00A001A43002E00D026
:100B20000AE1002A00D15EE14A46024300D061E1B9
:100B30004A07DB081343C9087CE7C046FF070000EB
:100B4000FFFF7FFFFE070000CF4CA24200D1CEE0A6
:100B5000802424042143382F5BDC1F2F00DDDCE0E0
:100B600020250C00ED1B1E00AB40AC40FE405D1E7E
:100B7000AB413443F9401C434B465B1A99464CE069
:100B80004A461C1A881AA3429241524292460200D7
:100B90005046121A9246120278D45346234300D08C
:100BA0006AE60021002545E74A07DB081343C90828
:100BB0003DE71C189C429B4149448A465B429A444B
:100BC000534601261B0200D427E702265246AF4BAC
:100BD00001211A401300214062080A43DC075B0828
:100BE0009A46144370E63A004C46203AD440A44654
:100BF000202F07D040224846D21B9040020040469A
:100C0000104380464046421E904162460400144311
:100C100024E619430C00631E9C4143461C1BA0455F
:100C20009B4149465B42CB1A9A46654616001BE635
:100C30000C001C4300D1C7E07C1E012F00D1F9E05D
:100C4000914EB7425CD0270040E720224C464046F8
:100C5000D21B9440F840044340469040421E9041CD
:100C60004A46FA4004438918EEE6874CA24200D176
:100C7000F9E6181898429B4149445B42CB18DC07BF
:100C800040085B089A4616000443C6E64246D41A5A
:100C9000A04580414B464042591A0B1A9A46654678
:100CA000EAE54B464A46C0085B0765460343D10860
:100CB000BDE6002A00D08EE04B46034317D18021C9
:100CC00000250903DAE64A07DB081343C908D1E621
:100CD0001C1A4A46A3429B41891A5B42CB1A9A4688
:100CE0000126C1E54A07DB081343C9089FE64346CE
:100CF000D8084B464A465B0765460343D108B9E628
:100D00004346D8084B464A465B070343D108B1E641
:100D100019430C00631E9C41EBE63C000D00203C97
:100D2000E540202F03D04024E41BA1400B431C00CE
:100D3000631E9C412C4370E7002AE1D04A460243DF
:100D4000C1D04A07DB0813438022C90812031142AD
:100D500008D04846C408144204D143462100DB08A9
:100D6000420713435A0FDB005207DB08134381E6A7
:100D70004B46034300D114E74B464A46C0085B0785
:100D800065460343D10855E6C41AA04580414B4649
:100D90004042591A0B1A9A466546012664E51C1A08
:100DA0004A46A34280418A1A4042121A92461202CF
:100DB00049D54246D41AA04580414B464042591A73
:100DC0000B1A9A4665467FE54B464A46C0085B07C4
:100DD0000343D1082BE64A46DB08024338D14A07D1
:100DE0001343C90846E64B464A46C0085B0703431F
:100DF000D1081FE61C189C429B4149448A465B422D
:100E00009A4453461B0200D407E652461F4B012664
:100E10001A40924601E63C000E00203CE640202F9E
:100E200003D04024E41BA1400B431C00631E9C41E3
:100E300034435EE643448342804149448A4640420B
:100E40001C008244BCE65346234300D1A9E6E4E5F6
:100E50004A0713438022C9081203114209D04846A9
:100E6000C408144205D1434665462100DB08420709
:100E700013435A0FDB00DB0852071343FAE5002344
:100E8000014A1C0040E5C046FF070000FFFF7FFF4E
:100E9000F0B557464E464546DE46E0B50C031F000A
:100EA0004B0081469246050085B0240B5B0DCE0FAA
:100EB000002B00D152E1D24A934200D16EE1420FA1
:100EC000E40014438022120422439046CD4AC50018
:100ED00093469B440023994600933C037B00504675
:100EE000240B5B0DFF0F002B00D11AE1C44A934283
:100EF00000D15EE1420FE400224380242404144325
:100F0000C04AC10094465A466344D31A9B46002007
:100F100033007B409A464B460F2B27D8BA4A9B009A
:100F2000D3589F46B246009B022B16D0032B00D10C
:100F300087E2012B00D0D5E00023002200251B050D
:100F400013435246D20713432800190005B0F0BCE2
:100F5000BB46B246A946A046F0BD00220025A84BDC
:100F6000EDE7BA46A0460D000090DCE7444500D20C
:100F7000C4E100D1BFE101235B429C462E00404604
:100F80000025E34423020C0E1C431B0C994623044A
:100F90000A021F0C494600920197FFF761F902000F
:100FA0007A430B04310C804619438A4207D9012346
:100FB0005B429C460919E0448C4200D801E2881A41
:100FC0004946FFF74DF9019A360442430904360CAD
:100FD00003000E43B24204D93619013BB44200D893
:100FE000E9E1B01A4246009E12041A43330C1F0076
:100FF000110C9046029313043204160C32001B0CA1
:101000005A4303967B434E437943170CBC469B19C6
:1010100063449E4203D980267602B44661441E0C86
:10102000711816041B04360C9E19884202D312D183
:10103000B54210D243465A1E009B9C4665441F0091
:101040009D429B415B421B19C018844200D29EE125
:1010500000D199E19046AE1BB542AD41401A6D42B8
:10106000401B844200D1D2E14946FFF7F9F8019ACA
:101070000B044243310C050019438A4200D96CE14C
:10108000881A4946FFF7ECF8019A360442430904EE
:10109000360C03000E43B24200D953E10398B61A4E
:1010A00002002D041D43029F2B041B0C5A437B435B
:1010B0009C46290C4843130C84446344794398426A
:1010C00003D98020400284466144180C12041B049A
:1010D000120C40189B18864200D200E100D1FBE0C0
:1010E00001231D43494B5B44002B00DCAAE06A0747
:1010F00000D03DE1E9084246D20106D54246444BC4
:101100001A4080239046DB005B44424A934200DD54
:1011100023E742465B05550752020D43120B5B0D58
:101120000DE75146214300D17CE0002C00D1FBE0CB
:10113000200001F063FA02000B3A1D239B1A52466D
:101140000100DA40534608398B408C4019001443A3
:10115000314B58449B4683440020D9E60300234387
:10116000984644D0002C00D1CFE0200001F046FA90
:10117000010002000B391D235B1A49461000D940BB
:10118000083884400B004D46234398468540234B46
:101190009B1A9B460023994600939EE60200224339
:1011A00090461DD108229B460223002591460093BC
:1011B00093E65146214309D102234A461A43184B6C
:1011C00091469C4600240220E344A1E603234A46BC
:1011D0001A43134B91469C4651460320E34497E63D
:1011E0000C229B460323A0469146009375E60423F8
:1011F000994600239B460133002500936DE6C046C7
:10120000FF07000001FCFFFF68990008FF030000D2
:10121000FFFFFFFEFE070000F30300000DFCFFFFD1
:1012200001F8FFFF4A4601231A439146002401209A
:101230006EE6002380229A460025884B12037EE644
:1012400001256D420122D21A382A00DD74E61F2AD8
:1012500000DCBDE01F214942CB1A4146D9400B00BA
:10126000202A04D041467E4A5A4491400D43290029
:101270004A1E9141194307231D0000220D400B42D5
:1012800000D1D0E00F2200230A40042A00D1C7E099
:101290000A1D8A42894149425B1811001A0200D492
:1012A000BEE001230022002549E6802243461203C6
:1012B000134208D0144206D122431203BA460D004D
:1012C000664B120B3BE68022434612031A4312037D
:1012D000B246624B120B32E6002B00D102E7A61990
:1012E0006A1EA64200D289E0864200D29FE000D169
:1012F000AFE01500F4E6A94200D93CE64346DE071C
:1013000058086B081E43ED073CE601F077F9010031
:101310000200153120321C2900DC2CE74B4608382E
:1013200083400025984632E701F068F903001A006F
:10133000153220301C2A00DCFFE65446083B002111
:101340009C4005E73619013BB44200D9A6E6B242FB
:1013500000D8A3E6831E3619A0E60919013D8C4288
:1013600000D98DE68A4200D88AE6851E091987E6EB
:101370000F222A40042A00D1BCE6291DA942AD4112
:101380006D42C908A844B6E6AF4200D962E6814280
:1013900004D800D05EE6AE4200D85BE602235B4292
:1013A0009C46009BE0449C4665449D429B415B42B9
:1013B0001B19C0184FE6B24200D812E6831E361938
:1013C0000FE68A4200D8FAE5831E98460919F6E529
:1013D000244B28005B4441469D409940D0406B1E01
:1013E0009D41434601432943D3404A0700D155E775
:1013F0000F220A40042A00D04AE74FE71500864230
:1014000000D06DE6009A9A4200D069E66AE6164B73
:101410005B44002B00DC13E701250021A8446AE6A9
:101420005D075B021A0BC90800230D4387E500998D
:10143000023D4A008A42BF417F423F19F61900929D
:10144000DDE78022434612031A431203034B120BBB
:1014500075E500999942EAD31500D3E7FF0700002C
:101460003E0400001E040000FF030000F0B54E46DD
:101470004546DE4657469046E0B517001A03120B64
:101480000500844619480E034C0091465A00DB0FB4
:101490009B46360B640DC90F520D844219D082420F
:1014A00010D0012094420ED14E450CD10120C445EC
:1014B00009D1594517D0002C05D130002843431ECF
:1014C000984100E00120F0BCBB46B246A946A046C8
:1014D000F0BD330001202B43F5D1A242F3D14B469E
:1014E0003B43F0D1E2E70020EDE7C046FF070000F4
:1014F000F0B54746CE460400180016001B031B0B30
:101500002D4D4A00994680B543000F03A446B046CE
:101510003F0B520DC90F5B0DC00FAA4221D0AB4249
:1015200013D0002A22D13C43002B02D14D462E433A
:1015300022D0002C10D0814222D002200139084054
:101540000138C0BCB946B046F0BD4D462E4329D146
:10155000002AF0D13C43EED10028F2D101204042D4
:10156000EFE73D0025431DD19342EED0002BE2D1A1
:101570004C462643DFD1E0E70020002CE1D0DCE739
:101580009A420ADCE8DB4F45D7D80ED000204F4501
:10159000D7D20029E2D00800D3E7434258414000A7
:1015A0000138CEE702204042CBE7C445C5D8002031
:1015B000C445C6D2EDE7C046FF070000F0B5474678
:1015C000CE460400180016001B031B0B2C4D4A00CE
:1015D000994680B543000F03A446B0463F0B520D19
:1015E000C90F5B0DC00FAA420DD0AB4210D0002A2C
:1015F00027D13C43002B11D14D462E430ED1002064
:10160000002C15D00EE03D00254310D1934218D197
:101610004D462E430BD1002A02D13C43002C0BD067
:10162000814214D0022001390840013800E0022034
:10163000C0BCB946B046F0BD0028F9D101204042F7
:10164000F6E7002BECD14C462643E9D1EAE79A4273
:1016500004DD4342584140000138E9E79A42EBDBA0
:101660004F45DFD806D000204F45E1D20029E5D014
:101670000800DDE7C445D5D80020C445D8D2F5E739
:10168000FF070000F0B54546DE4657464E46E0B53A
:101690001F000B031B0B9B464D00CB0F0400914614
:1016A000984687B06D0D00D1CDE1CE4B9D4200D163
:1016B000E9E15A46430FD2001343802212041A4331
:1016C000C3009A46C84B93469C46002300266544B7
:1016D00000933C037B004846240B5B0DFF0F002B5F
:1016E00000D189E1BF4A934219D0420FE40022435E
:1016F000802424041443BC4A002194464246634497
:101700005B190193019B7A400133C000D2B202936E
:101710000A2E1CDD3A000B2E5ED0474656E04946A5
:10172000B04B2143EB18019300292AD180200222DB
:1017300000012B0084461643424663447A40D2B2ED
:1017400002930A2E00DD31E2002000240221022E45
:1017500026DC013E012E52D802294CD0012900D0AE
:1017600018E10023002400251B052343D20713435F
:101770002800190007B0F0BCBB46B246A946A046F7
:10178000F0BD8021032209012B008C4616434246FE
:1017900063447A40D2B202930A2E00DD28E203218C
:1017A0000125B540AC46A6266346F60035403342D7
:1017B0000BD19026B600334218D1B93EFF3E1E42EF
:1017C0001DD0A3468246009100E0170000993A0020
:1017D000022910D05C4650460329BFD180231B0349
:1017E0001C43240305007F4B240BBDE7802400220B
:1017F0007C4B2403B8E7002400257A4BB4E753461A
:101800001E04360C1F0C3300010C0004000C434373
:10181000984603007B43994633004B439C4643461E
:101820000D001B0C9A467D43CC44D4440095E14501
:1018300004D980235B0299464D44009563461B0CF6
:101840001D0063461B049C4643461B041B0C984624
:10185000634643440393230C984633002404240C2A
:1018600063439C4623007B43994643465E435F4364
:101870004E446346B2461E0C5644B14503D98023FC
:101880005B0299464F44330C99463B004B44059309
:101890006346AC461F043F0C3604F619B444634655
:1018A00004935B461B0C9C465B461F043F0C3B00AD
:1018B00043439946634643439A464B4660461B0C56
:1018C0009B4648437943514459448A4503D9802370
:1018D0005B029A4650440B0C9A464B461B041B0C69
:1018E00099463B006343090445464944994663468B
:1018F0005C436B439C464B461B0C98466F433F1919
:1019000047445044BC4203D980235B029846C444F8
:10191000049B009D98464544B542B64173429846A3
:101920004B461E04059B3C049946360CA4194C44B6
:10193000A14683466E18C1448E428941CB445D4620
:1019400049426D189C42A441C1459B418345804159
:101950008D4289415B4264421C434042039B4942A1
:10196000014370023F0C1843E419471EB841641844
:101970006444F60D61023043EC0D6E020C433043BB
:10198000C90100D4F1E00121430801400B43E00705
:10199000184364081549029B8C466344002B00DC05
:1019A00097E0410709D00F210140042905D0011D0E
:1019B00081428041404224180800E10106D580217F
:1019C000C9008C460A4B1C40029B634409498B4268
:1019D00000DD10E76107C50864025B050D43240BB9
:1019E0005B0DC1E6FF07000001FCFFFFFF030000E5
:1019F000FFFFFFFEFE0700004B46234359D0002C9B
:101A000000D1A3E0200000F0F9FD010003000B3934
:101A10001D22521A49461800D1404A4608388240D1
:101A2000844010000C43744AEB1A944642466344C7
:101A30000193019B7A4001330021D2B202930A2E16
:101A400000DD67E683E65B4603439A462AD05B46A1
:101A5000002B6DD0584600F0D1FD010003000B397A
:101A60001D22521A210018005D46D14008388540D9
:101A70000A0084402A439346A2465F4D0026ED1A91
:101A80000023009325E65B4603439A4605D10023D5
:101A90009B460233082600931BE6032382460C264E
:101AA000009316E600239B4601330426002500938D
:101AB0000FE64246013301951E43019B7A400133F4
:101AC000002400200121D2B202930A2E00DD21E67B
:101AD0003DE60121C91A382900DD42E61F2947DD0C
:101AE0001F2625007642F31ADD402B00202905D061
:101AF0004249029D8C466544AC402043411E8841CA
:101B0000184307231D000024054003424AD00F2339
:101B100000240340042B42D0031D834280414042F5
:101B20002418180023023AD50123002400251BE6BF
:101B300000F064FD01000300153120331C298FDD06
:101B40000838002284409246A34696E700F056FDEE
:101B500001000300153120331C2900DC58E7020086
:101B60004C46083A002094405DE7019B029311E740
:101B7000234B26009C460300029DCB406544AE40AB
:101B80001E430300AB40581E834130001843CC4035
:101B90004307C7D00F230340042BBDD1C2E765071D
:101BA0006402240BC00800230543DDE50025022361
:101BB0000F2E0CD180245B46240323420ED02142F9
:101BC0000CD10C4324033A000E4B240BCCE50B2E16
:101BD00000D0A2E58B46AA460093F7E580245B4639
:101BE00024031C43240342465546064B240BBBE505
:101BF0004D4621000323DBE70DFCFFFF3E04000000
:101C00001E040000FF070000F0B557464E4645464B
:101C1000DE46E0B50D000400190010002B035B0A3E
:101C2000620F1A43E3000C03640A470F2743D04CAA
:101C30006E00914683B04A00C0009846A246760DD9
:101C4000ED0F520DC90F0190A24200D1B9E001245D
:101C500061408B468D4200D18DE0B41AA446002C21
:101C600000DCB7E0002A00D1CBE0C14A964200D1A7
:101C700086E18022120417436246382A00DDA4E17F
:101C80001F2A00DD1DE2614620223C00521A01009D
:101C900090409440421E90416246A0466446D74020
:101CA0004A46E1404446D21B91460C4304431C1B68
:101CB000A34292414B4652429B1A9A4653461B02FC
:101CC00000D42BE153465A02530A9A465346002B3E
:101CD00000D166E1504600F091FC0300083B202251
:101CE0002000D21A5146D040994002009C400A433D
:101CF0009E4200DD64E19B1B591C1F2900DDFEE0B4
:101D00002023100026005B1A9C409840CE40CA4019
:101D1000631E9C413043924600260443630709D06A
:101D20000F232340042B05D0231DA342A44164426A
:101D3000A2441C0053461B0200D4F2E08C4B013637
:101D40009E4200D10FE153468A49E4080B40190036
:101D50005B07234372054C02240B520D12052243EC
:101D6000ED072A431800110003B0F0BCBB46B24691
:101D7000A946A046F0BDB41AA446002C59DD002A9D
:101D800000D1B0E0564500D1FAE08022120417439A
:101D90006246382A00DDD4E01F2A00DCC0E13900A9
:101DA000203AD1406246202A06D064464022121BC7
:101DB0003C00944004430194019C621E94410C43F6
:101DC000C3E03C0004432BD08B468D422ED06A4C9E
:101DD000A446B4446446002C5FD0941BA446002E55
:101DE00000D020E14C461C4300D1C7E161464C1EA7
:101DF000012900D123E25E4DAC4500D1D8E1A446D3
:101E00001AE13A00024300D1E4E02200013A012C39
:101E100000D1C3E156498C4200D1B1E094462BE792
:101E2000012461408B468D4200D016E752498C4612
:101E3000B4446446002C00D1D3E0911B8C46002EA4
:101E400000D15EE14A498A4200D1BEE180214C4680
:101E500009040C43A1466146382900DDBAE11F2977
:101E600000DD27E22024641A4946A1401E0088466E
:101E70006146A340CE4041465C1EA3413143194315
:101E80000C0063464946D9407F18241884429B4180
:101E90005B429A461600BA445DE0384C721C2242FE
:101EA00000D0DFE04A461A43002E00D05CE1002A51
:101EB00000D1CFE13A00024300D17FE11C1A4A462B
:101EC000A3428941D21B4942521A9246120200D4BF
:101ED0000AE2C41AA04280414B464042FF1A3B1A14
:101EE0009A465D461AE73A00024373D02200013A4F
:101EF000012C00D1CBE0544542D0944648E7100075
:101F00001F3BD840202903D040235B1A9A4014433A
:101F1000631E9C41002300269A460443630700D0B9
:101F2000FEE65246E308520713435246B446D2082F
:101F30000F498C452AD01203140B62465205520DEC
:101F40000CE73C000443621E9441E4189C42924119
:101F500052424A44924653461B02DFD5044B013697
:101F60009E4200D0A0E0320000240023F6E6C046E6
:101F7000FF070000FFFF7FFF01F8FFFFFE070000E3
:101F8000DB084A46520713434A46D2081900114358
:101F900000D1B5E18024240314432403D54A240B43
:101FA000DCE6200000F02AFB030018331F2B00DCC6
:101FB00095E622000838824000249E4200DC9AE622
:101FC000F61ACD4B1A409246A8E63C000443621E26
:101FD00094416CE64A46DB08520713434A46D2084E
:101FE000A6E7C64C721C224200D0ACE04A461A4317
:101FF000002E00D005E1002A00D156E13A0002434C
:1020000000D1DBE01C189C429B414F44BA465B4226
:102010009A4453461B0200D480E75246B64B012631
:102020001A4092467AE7B34CA24200D1C0E0802425
:102030004D4624042543A9466446382C53DC6146AA
:102040001F2C00DDCDE020251E002D1B4C46AB4093
:10205000AC40CE405D1EAB41344323434C46CC40A4
:102060003F1B45E04A461C1AD11BA34292415242F3
:1020700092460A005146521A9246120200D583E057
:102080005346234300D021E60022002553E71C18C5
:102090009C429B414F44BA465B429A4453460126B8
:1020A0001B0200D43AE702265246934B01211A4004
:1020B0001300214062080A43DC075B089A46144378
:1020C0002CE63900203AD1406246202A06D06446E8
:1020D0004022121B3C00944004430194019C621E68
:1020E00094410C43E3E5494619430B005C1EA341B0
:1020F000C41AA0429B415B42FB1A9A465D461600F9
:10210000DCE54946194300D1AEE061466446013939
:10211000012C00D1E0E0774CA44556D08C469AE6DD
:10212000614620223C00521A944001009040A04693
:102130006446421E90416246E1404446D7400C430B
:102140000443B94401E76B498A4200D10CE71818EF
:1021500098429B414F445B42FB18DC0740085B08F8
:102160009A4616000443D9E6002A00D081E03B00DD
:1021700003431DD18022002512030BE7C0087B0713
:102180005D460343FA08D3E6C41AA04280414B4699
:102190004042FF1A3B1A9A465D4697E51C1A4A468A
:1021A000A3429B41D71B5B42FB1A9A46012685E559
:1021B000C0087B075D460343FA08E7E64A46DB08AA
:1021C000520713434A46D208B5E6C0087B070343CB
:1021D000FA08DBE6494619430B00591E8B411C00E7
:1021E00053E64D46203CE540202905D04024641AA2
:1021F0004946A1400B43984643465C1EA3412B43EE
:1022000076E7002AE1D03A00DB08024300D1B8E6C5
:102210004A465207802413434A462403D2082242E6
:1022200007D0FE08264204D15D463200C3087F076E
:102230003B43590FDB004907DB080B43A6E6C41AF2
:10224000A04280414B464042FF1A3B1A9A465D46E7
:10225000012633E53B00034300D115E7C0087B07A7
:102260005D460343FA0866E6C0087B070343FA08A5
:102270005EE63A00DB08024300D182E64A46520796
:10228000802413434A462403D208224207D0FE0882
:10229000264204D15D463200C3087F073B43590FF5
:1022A000DB00DB0849070B4370E6C0087B070343EC
:1022B000FA0840E64C462039CC406146202906D039
:1022C00066464021891B4E468E403343984643461E
:1022D000591E8B411C43D8E51C18844280414F4451
:1022E000BA4640428244D9E65346234300D1CBE666
:1022F00014E6C046FF070000FFFF7FFFFE07000057
:102300000023014A1C0029E5FF07000070B5050005
:102310000C481C0316005B000A034900120B490D10
:10232000240B5B0D814208D0064A0020934203D162
:1023300020003043431E984170BD01202A43FBD149
:10234000F2E7C046FF0700000A0030B5134C530007
:1023500009030500090B00205B0DD20FA34204DD29
:102360000F48834202DD0F4BD01830BD8020400360
:1023700001430D48C01A1F2808DD0C48C31AD94074
:102380000B005842002AF0D11800EEE7084CC54077
:10239000A446634499400B002B43F2E7FE03000080
:1023A0001D040000FFFFFF7F330400001304000042
:1023B000EDFBFFFF70B5002816D0C317C5185D40B0
:1023C000C40F280000F01AF9114B1B1A0A2816DC5A
:1023D00002002E00153296400B22121AD5405B05E2
:1023E0002D032D0B5B0D03E00024002300250026A8
:1023F0001B052B43E40723433000190070BD0B3845
:1024000085405B052D0300262D0B5B0DF0E7C046D4
:102410001E04000010B5041E10D000F0EFF80F4BA2
:102420001B1A0A2811DC0B222100121AD140153088
:102430000A035B058440120B5B0D01E000230022C0
:102440001B0513432000190010BD22000B388240E9
:102450005B0512030024120B5B0DF1E71E04000064
:1024600070B542024300C40FFE201B0E591C550AD2
:1024700008420CD0E02189008C466D07120B6344A2
:102480001B051343E40723432800190070BD002BEC
:1024900014D1002D1BD0280000F0B0F80A281CDC55
:1024A0000B232A001B1ADA40030015339D400E4B04
:1024B00012031B1A5B05120B5B0DE1E7002D09D01F
:1024C000130B802212031A436D07084BD8E7002331
:1024D0000022D5E70022054BD2E703002A000B3B80
:1024E0009A400025E3E7C04689030000FF0700008B
:1024F0000200F0B54B000D03400F5B0DCC0F6D0AD1
:102500003A490543581CD70008420AD0384959189F
:10251000FE2916DDFF200022C0051043E4072043FA
:10252000F0BD002B06D13D4326D005229201520A70
:10253000D8B2F1E72F43EDD08022D203FF202A4307
:10254000EAE700291BDD9201501E8241ED007F0F5A
:102550002A433A43530747D00F231340042B00D09C
:1025600004328023DB0413403ED0481CFE29D1D026
:102570009201520AC0B2CFE700200022CCE70A0045
:1025800017322FDB802636042E431E256D1A1F2D91
:1025900011DD02225242521A3100D140202D04D0C6
:1025A000144A944663449E4037433A00531E9A416E
:1025B0000A430021CEE7104A38009446634498400D
:1025C0003A00411E88419E40EA40304302430021C8
:1025D0005307C1D180211300C90401200B400A42D6
:1025E000C6D1A3E70023A0E70B009FE7FE0700008A
:1025F00080FCFFFFA2FCFFFF82FCFFFF1C210123E8
:102600001B04984201D3000C10391B0A984201D3D5
:10261000000A08391B09984201D30009043902A2B3
:10262000105C40187047C04604030202010101011A
:10263000000000000000000010B5002903D1FFF7E2
:10264000DDFF203002E00800FFF7D8FF10BDC046D4
:102650001FB50F2304000C219C430B0003AA234346
:10266000137008230001C0B21C430343D3706423DA
:102670000143917054704E2100930248603B01F079
:102680007BF81FBD800200201FB50F2304000D2121
:102690009C430B0003AA2343137009230001C0B21B
:1026A0001C430343D37064230143917054704E2143
:1026B00000930248603B01F05FF81FBD80020020DC
:1026C00010B5322000F05CFD3020FFF7C1FF05207F
:1026D00000F056FD3020FFF7BBFF012000F050FD59
:1026E0003020FFF7B5FF0A2000F04AFD2020FFF759
:1026F000AFFF0A2000F044FD2820FFF7A9FF0120CA
:1027000000F03EFD0820FFF7A3FF012000F038FD98
:102710000120FFF79DFF012000F032FD012000F0B5
:102720002FFD0620FFF794FF012000F029FD0C206B
:10273000FFF78EFF10BD10B504002078002800D1EF
:1027400010BD0134FFF7A0FFF7E70000012310B52B
:10275000140092B25B42024802F0F3F9200010BD6F
:102760005C03002070B58025A0242D02E40506003E
:1027700029002000012200F075FEFA2331009B00A1
:102780000822044802F0DDF929000022200000F0B0
:1027900069FE70BDD402002010B5354B354A197959
:1027A000D8780902014349BA118099795879090208
:1027B000014349BA5180197AD8790902014349BACB
:1027C0009180997A587A0902014349BAD180197BDC
:1027D000D87A0902014349BA1181997B587B0902D1
:1027E000014349BA5181197CD87B0902014349BA96
:1027F0009181997C587C0902014349BAD181197DA4
:10280000D87C0902014349BA1182997D587D090299
:10281000014349BA5182197ED87D0902014349BA60
:102820009182997E587E0902014349BAD182197F6B
:10283000D87E0902014349BA1183997F587F090262
:10284000014349BA518319001F314978D87F0902E1
:10285000014349BA2133918319785B7806481B02FA
:102860000B435BBAD3838021012200F0FBFD10BD36
:1028700010020020F00100200008005010B59EB0AA
:102880002422002111A803F0F5FB1422002101A845
:1028900003F0F0FB2822002106A803F0EBFB1C4903
:1028A0001C4B0A6801241A4080231B0113430B6050
:1028B000022310931A9300231B938023DB021C93A3
:1028C00080231022DB0310A8139414921D9301F0AF
:1028D00077F8002801D072B6FEE70F23039001932A
:1028E00004900C3B0590210001A8029301F0F2FA3C
:1028F000002801D072B6FEE708230C9006A80693C4
:1029000001F0D6FB002801D072B6FEE71EB010BD64
:1029100000700040FFE7FFFFF0B580268FB000F0A9
:1029200009FCFFF7ABFF1422002109A803F0A2FB6A
:102930000221504B0125DA6AE0273243DA62DA6A73
:102940004D4832400492049ADA6A7F000A43DA6200
:10295000DA6A00240A400592059ADA6A0E310A43BF
:10296000DA62DA6A0A400692069ADA6A0C390A438F
:10297000DA62DA6A0A400792079ADA6A02312A436F
:10298000DA62DB6A00222B400893089B00F06AFDA4
:1029900031000022394800F065FD00223900384836
:1029A00000F060FD0623344809A909930A950B94A9
:1029B0000C9400F08DFC314809A909960A950B94F6
:1029C0000C9400F085FC2E4809A909970A950B94F0
:1029D0000C9400F07DFC2B4E2B4B962733600C2380
:1029E00022007361210023003000BF017760B460D2
:1029F000F4603461B461F4613462746202F000FA2C
:102A00000300A04201D072B6FEE72048204A47608A
:102A100002600C228360C360036142618361C36111
:102A20000362436202F054F9002801D072B6FEE757
:102A3000184C194BA0602360184B20616061A061A5
:102A4000E061206220006360E56000F03FFE011E4F
:102A500001D072B6FEE7200000F020FF011E01D079
:102A600072B6FEE7200000F03FFF041E18D072B6D9
:102A7000FEE7C04600100240000400500010005065
:102A800000080050D4020020004C00405C030020ED
:102A9000005000408002002000540040BB7C7000C9
:102AA00020223000CD4902F0EEF903230A27CC4E54
:102AB000062173705E3335703000B470F37034717A
:102AC000777100F0C3F96425B071000AF071C44851
:102AD000FFF748FE2022C149C24802F0D4F9C2489B
:102AE00003F0ACF9C14B18880193FFF763FC002297
:102AF000BF4BFEF7CDF9FFF7FBFCFFF7B1FCBD4C78
:102B000002900391029A039BBB49200003F0A0F9B5
:102B10002000FDF7F9FAB94E2B00210082B23000F7
:102B200002F00FF8029A039BB549200003F090F9D8
:102B3000FFF7C6FD8020FFF78BFD380000F020FB7B
:102B40002000FFF7F8FD280000F01AFB019B5888D1
:102B5000FFF730FC0022A64BFEF79AF9FFF7C8FCFE
:102B6000FFF77EFC02900391029A039BA549200087
:102B700003F06EF92000FDF7C7FA2B00210082B2A6
:102B8000300001F0DEFF029A039B9F49200003F012
:102B90005FF9C020FFF75CFD380000F0F1FA20007B
:102BA000FFF7C9FD280000F0EBFA019B9888FFF7BA
:102BB00001FC00228E4BFEF76BF9FFF799FCFFF743
:102BC0004FFC02900391029A039B9049200003F06E
:102BD0003FF92000FDF798FA2B00210082B2300067
:102BE00001F0AFFF029A039B8949200003F030F9FE
:102BF0009420FFF72DFD380000F0C2FA2000FFF707
:102C00009AFD280000F0BCFA380003F0B7F88148BC
:102C100003F014F9019BD888FFF7CCFB00227E4B10
:102C2000FEF736F9FFF764FCFFF71AFC02900391F8
:102C3000029A039B7949200003F00AF92000FDF76E
:102C400063FA2B00210082B2300001F07AFF029A71
:102C5000039B7349200003F0FBF8D420FFF7F8FC36
:102C6000380000F08DFA2000FFF765FD280000F025
:102C700087FA019B1889FFF79DFB0022664BFEF740
:102C800007F9FFF735FCFFF7EBFB02000B00200014
:102C9000644903F0DDF82000FDF736FA2B0082B21C
:102CA0002100300001F04DFF019B5889FFF782FBA6
:102CB0000022594BFEF7ECF8FFF71AFCFFF7D0FBA8
:102CC00002000B002000584903F0C2F82000FDF775
:102CD0001BFA2B0082B22100300001F032FF3800D5
:102CE00003F04CF8514803F0A9F8019B9889FFF7CD
:102CF00061FB00224E4BFEF7CBF8FFF7F9FBFFF725
:102D0000AFFB02000B0020004A4903F0A1F82000AD
:102D1000FDF7FAF92B0082B22100300001F011FF1B
:102D2000019BD889FFF746FB0022414BFEF7B0F824
:102D3000FFF7DEFBFFF794FB02000B0020003E498B
:102D400003F086F82000FDF7DFF92B0082B22100A6
:102D5000300001F0F6FE019B188AFFF72BFB0022E2
:102D6000334BFEF795F8FFF7C3FBFFF779FB020043
:102D70000B002000314903F06BF82000FDF7C4F987
:102D80002B0082B22100300001F0DBFE380002F09F
:102D9000F5FF2B4803F052F8019B588AFFF70AFB16
:102DA0000022234BFEF774F8FFF7A2FBFFF758FB56
:102DB00002000B002000234903F04AF82000FDF731
:102DC000A3F92B0082B22100300001F0BAFE1E48A8
:102DD00003F034F8C82000F0D3F978E610020020A0
:102DE00050020020D4020020A8990008F001002021
:102DF0000000244058020020C39900085C03002012
:102E0000D5990008E5990008F7990008079A000885
:102E1000199A0008299A000800005940449A0008AD
:102E2000569A0008669A00087E9A0008969A00084A
:102E300000408F40AF9A0008C59A0008DB9A00084E
:102E4000F19A0008109B00082B9B0008FF2213003A
:102E5000F0B5084D084E094F013989B2A94202D197
:102E600018021043F0BD047801305440325D5A40DE
:102E70003B5DF1E7FFFF00002E9B00082E9C000841
:102E80000122054B596B0A435A638022996B520504
:102E90000A439A637047C0460010024010B5040010
:102EA00086B01422002101A803F0E4F80F4B226839
:102EB0009A4219D102220E4C0E48E36A01A913432B
:102EC000E362E36A13400093009BC0230193AE3B8F
:102ED00002930F3B0493023B059300F0F9F9802322
:102EE000A26B9B031343A36306B010BD00540040C4
:102EF000001002400004005070B5040088B0142295
:102F0000002103A803F0B6F823682E4A934239D172
:102F100080222D4B1203996BA0200A4301219A6352
:102F2000DA6A02240A43DA62DA6A03260A40009265
:102F3000009ADA6A03310A43DA62DB6A06250B403B
:102F40000193019B802303A91B02C00503930494F2
:102F50000696079500F0BCF9C023049400241B01D9
:102F600003A91A48039305940696079500F0B0F953
:102F7000220021000E2000F015F90E2000F03CF98F
:102F800008B070BD124A9342FAD180220E4B520310
:102F9000996B10480A439A630222D96A1143D96295
:102FA000DB6A03A913400293029B18230393153B8A
:102FB000069303330492079300F08AF9002211006C
:102FC000D8E7C046004C0040001002400008005006
:102FD0000050004000040050FEE7FEE770477047D5
:102FE00010B500F0BBF810BD10B5034801F0A0F912
:102FF000024801F09DF910BDD40200205C030020BE
:103000000120704710B503F08FF8162303600120EC
:10301000404210BD10B503F087F816230360FEE7A9
:1030200070B50E0014000025A54201DB200070BD24
:1030300000E000BF70550135F6E7012040427047BF
:1030400080239B0100204B607047012070470020C7
:10305000704700000B490C4A0300521A0B4910B587
:103060000868002801D10A4808600868C31893421C
:1030700006D903F059F80C2303600120404210BD2B
:103080000B60FCE70004000000500020E403002077
:1030900038050020704700000D488546FFF7FAFF0D
:1030A0000C480D490D4A002302E0D458C4500433A3
:1030B000C4188C42F9D30A4A0A4C002301E0136079
:1030C0000432A242FBD303F035F8FFF725FCFEE7FC
:1030D0000050002000000020D401002098A100082A
:1030E000D401002038050020FEE7000070B505007F
:1030F000FA200D4B80001978FDF72CF80B4C0100DD
:103100002068FDF727F800F083F804000120002C68
:1031100009D1032D07D802382200290000F042F817
:103120002000034B1D6070BD040000200000002043
:10313000080000204023084A10B5116803200B4303
:103140001360FFF7D3FF041E03D1FFF799FE2000A1
:1031500010BD0124FBE7C04600200240034A044B97
:1031600011681B785B1813607047C046E8030020A5
:1031700004000020014B18687047C046E803002097
:1031800070B50400FFF7F6FF0500631C02D0044B86
:103190001B78E418FFF7EEFF401BA042FAD370BD86
:1031A0000400002030B5FF2503242A000440E40079
:1031B000A24089012940D243A140C3B200280ADBC2
:1031C000C0240B4B80088000C018A4000359134092
:1031D0000B43035130BD0F200340083B05489B08BB
:1031E0009B001B18D86902400A43DA61F2E7C04627
:1031F00000E100E000ED00E0002805DB1F2318409F
:103200001E3B8340014A13607047C04600E100E066
:103210008022431E5204012093420DD2C021074A4E
:1032200007485360036A09061B021B0A0B4303622B
:1032300000200723906013607047C04610E000E054
:1032400000ED00E030B5841DE27F0300022A06D0C5
:103250000422C263012000220533DA7730BD026800
:103260000E2011681C2581431160012110688843DC
:1032700010605A6C186C2A400D0095404560002083
:10328000E177E8E770B5841DE37F022B04D00423C7
:10329000C363033B180070BD0E2103681C251A6828
:1032A0008A431A600122196891431960436C016CCA
:1032B0002B4015009D404D60E2770024431DDC77D4
:1032C000826B1300A242E5D090472300E2E70000A2
:1032D0005C4AF0B58218541EA241002387B0053223
:1032E00005920A681400DC4001D107B0F0BD01244A
:1032F0002500A4469D4014002C4002942A4200D18F
:103300009EE003244A685F0001922240BC40E443EF
:103310000394541E64452FD88668039C2640CC68CD
:10332000BC403443664684604468AC432500019C3D
:10333000240934409C402C434460C568039C2540CC
:103340008C68BC402C43C460022A17D107250F2685
:103350001D40AD00AE40B446DC08A400041904943E
:10336000246A26006446A643B4460E696446AE400D
:103370002643049C266201E0032ADED1BA40046899
:10338000039D25402A430260C022019C9202144200
:1033900056D001272C4C1D00626B3A4362632B4AC6
:1033A0009C08A400A418A268944603221540AD000E
:1033B0000C32AA4066469643A022D2059446039654
:1033C0000022604511D0224A94463A0060450CD054
:1033D000204F9218B84208D01F4F0132B84204D093
:1033E0001E4E0132B04200D0059AAA40039D019FB3
:1033F0002A43A2601A4A029C9668029DE443354320
:10340000FF0201D4350025409560D668029D019FDA
:103410003543BF0201D435002540D5605668029D72
:10342000019F3543BF0301D4350025405560156821
:10343000029E019F2E43FF0301D425402E001660FB
:1034400001334EE700E4FFAF0010024000000140EE
:103450000004005000080050000C00500010005004
:1034600000040140002A01D0816170478162FCE7BD
:1034700003689A69920701D500229A62012299692C
:10348000114202D199690A439A61704730B5039C91
:1034900000682343120489051A43890D054B4568CA
:1034A0000A43640D234352009D4352082A4342605D
:1034B00030BDC046FF63FF03F7B5150002680E007C
:1034C000916910230F0004001F40002019420ED004
:1034D0002027D3610090019023689A693A4263D112
:1034E000019A002A31D004270120009B1F4380222B
:1034F00025685200AB69134202D00120EA610743FC
:103500008022D200134203D0082101200F43EA6138
:103510008022920013424CD00223EA611F43200014
:10352000FFF7A6FF6B68244A012013406B60636CB1
:1035300020223B436364230041331A70220000239E
:10354000423240341370237035E0721CC5D0FFF74F
:1035500011FE401BB04201D8002EBDD122002368CD
:10356000423258681178CAB2802194469A69090299
:103570000A420CD08022D201104208D16146202993
:1035800005D059680A435A60FFF7F4FD0500236827
:103590009B693B42A0D1FFF7EDFD401B1928F6D9EE
:1035A00001230097019397E7019A002A9BD1DF61DD
:1035B00099E70028B3D1FEBD00E800FEF8B504008D
:1035C0000D001600022723689B693B4201D00020B2
:1035D000F8BD320029002000FFF76EFF002818D147
:1035E0006B1CF0D0FFF7C6FD801BA84201D8002D50
:1035F000E9D123689B691A003A403B42E3D120217C
:10360000636C0B43636423004034413319705A7078
:1036100022700120DCE7F8B504000D0017001E0041
:10362000226893692B405B1B59424B41BB4201D03E
:1036300000201FE0731CF4D0FFF79CFD069BC01A0E
:10364000B04201D8002EEBD123689B692B405B1B55
:103650005A425341BB42E3D12022636C0120134301
:103660006364230041331A70220000234232403445
:1036700013702370F8BDF8B504000E001700202564
:1036800023689B692B4201D00020F8BD3A0031002D
:103690002000FFF711FF002815D1FFF76BFDC01BBD
:1036A000B04201D8002EEBD123689B691A002A4052
:1036B0002B42E5D1636C2B436364230040344133D8
:1036C0001D705A7022700120DFE7000070B5040001
:1036D0000120002C3FD0250041352B78DAB2002B99
:1036E00005D12300403320001A70FFF7D7FB2423B5
:1036F00001212B702368E0681A68A6688A431A6063
:103700001A4962680A401A619A6819490A409A601F
:10371000012821D18022120232439A605868154A4A
:1037200002435A60DA6800200A40DA60616922695F
:103730000A43A16909020A43DA60216AE2690A437D
:103740001A60012219680A431A60202360642B70F2
:1037500020634234207070BD8422120232439A608A
:103760000228DBD1802212015A60D7E7FFFFFFF069
:10377000FF7FFFFF00800002F0B587B005930300D4
:103780004133049203931B7804000F000220202B86
:1037900014D1230040331A78012A0FD001261E705D
:1037A000FFF7E8FC8021050000901923320020007B
:1037B0000902FFF730FF002802D0012007B0F0BD5A
:1037C00021232600039A42361370113B3370049B69
:1037D00060646362059B60636385628D2D4BFF2A85
:1037E00020D9FF222285009380235B04390020002A
:1037F000FFF74CFE638D2A0020000C99002B19D195
:10380000FFF739FF0028D8D120212368224DD96144
:103810005A682A405A60230040344133197030708E
:103820002070CBE7628D92B22285D2B200938023C2
:103830009B04DBE7FFF7C2FE0028BED1636A226863
:103840001978013391626362638D228D013B9BB2D3
:103850006385013A638D92B22285002BCAD0002A7B
:10386000C8D1802120000C9B0095FFF7D4FE0028D2
:10387000A3D1638DFF2B06D9FF2323858023FF224D
:1038800000905B04B2E7628D92B22285D2B20090C2
:10389000CDE7C0460020008000E800FEF0B504003F
:1038A0004134227803000F000220D6B2202A18D11A
:1038B0001D0040352A78012A13D0242222701B686B
:1038C000233A19680748914319601968014000209C
:1038D000196019683943196019680A431A6026701B
:1038E0002870F0BDFFEFFFFF0200F0B54132147801
:1038F0000300E5B20220202C17D11C0040342678AA
:10390000012E12D0223010701B6823381E68074F1A
:1039100086431E601E6809023E40314319601968E3
:1039200008431860002015702070F0BDFFF0FFFF05
:103930000C221D4B70B5DC682240082A31D00C2ABD
:1039400009D0042A25D11868184BC006C0171840A2
:10395000174BC01870BDA2021648120F805C80225F
:103960002402D968A40F52020134114209D0124A2C
:1039700000230021FCF7C2FD22000023FCF79EFD7E
:10398000E8E71A6810231A4201D00C4AF0E7084A07
:10399000EEE780205B6800021B045B0F0133984058
:1039A000D8E70548D6E7C0460010024000E548FFCA
:1039B0000024F400469D000800127A0000093D0032
:1039C000F0B5050085B0002859D00C23B84C02682A
:1039D000E668E7681E4080235B0219001F40D2079B
:1039E00041D42B689B0700D58AE02B68DB0628D5DD
:1039F000002E00D0E3E023689B0502D5EB69002B85
:103A00003DD080276268AB496B6A0A401A435B0B62
:103A100001333F029F40626061682A6A0902090A15
:103A200012060A436260E168A3480B061B0FC35CE1
:103A3000A24ADF40A24B17601868FFF757FB002827
:103A400034D12B681B0700D5F0E02B685B0700D54D
:103A500012E12B689B0600D597E1AB6A002B00D0E2
:103A6000C6E1002022E0082E03D00C2E09D1002F41
:103A700007D023689B03B4D56B68002BB1D101201C
:103A800014E06A688A4213D1226813432360FFF767
:103A900071FB00908022236892021342A1D1FFF7AC
:103AA00069FB009BC01A6428F4D9032005B0F0BD5F
:103AB000A021C9028A4205D180222168D2020A438C
:103AC0002260E1E721687F480140216021680B40C6
:103AD0000393039B7C4923680B402360002AD6D1C3
:103AE000FFF748FB0090802223689202134200D126
:103AF00077E7FFF73FFB009BC01A6428F3D9D4E7B0
:103B00002022EB68134203D02168934311432160C4
:103B1000042E03D00C2E24D1002F22D1226852076C
:103B200001D5002BABD061682A69684812020140B8
:103B30000A430921626022688A4313432360FFF726
:103B4000F7FEE3685C4A1B061B0FD35C5B49D84059
:103B50005B4B08601868FFF7C9FA002800D144E7FA
:103B6000A4E7002B19D0092122688A43134323605C
:103B7000FFF700FB070004222368134207D06268A6
:103B80002B6952491B020A40134363602DE7FFF77C
:103B9000F1FAC01B0228EED987E70122236893437C
:103BA0002360FFF7E7FA070004222368134200D1DD
:103BB0001BE7FFF7DFFAC01B0228F5D975E7EB69B1
:103BC000002B20D0802322685B0013432360FFF783
:103BD000D1FA070080222368920013420DD0636857
:103BE000344A13406A6A1343636062682B6A1202A4
:103BF0001B06120A1343636023E7FFF7BBFAC01BDF
:103C00000228E7D951E72368314A13402360FFF7C0
:103C1000B1FA0700802223689200134200D110E716
:103C2000FFF7A8FAC01B0228F4D93EE76A6901230E
:103C3000002A10D0226D13432365FFF79BFA07007B
:103C40000222236D134200D0FFE6FFF793FAC01B58
:103C50000228F5D929E7226D9A432265FFF78AFAEF
:103C600007000222236D134200D1EEE6FFF782FA2D
:103C7000C01B0228F5D918E780230021A26B5B0541
:103C800000911A4204D1A26B1343A3630123009352
:103C90008022104F52003B6813421DD08022AB6837
:103CA000520093422CD1226D134323654DE0C04650
:103CB00000100240FF1FFFFF2E9D000800000020A3
:103CC00008000020FFFFFEFFFFFFFBFFFFE0FFFFFC
:103CD000FFFEFFFF0070004080223B68520013434C
:103CE0003B60FFF747FA019080223B685200134285
:103CF000D4D1FFF73FFA019BC01A6428F4D9D4E667
:103D0000002B16D1236D6B4A13402365236D6A4A3D
:103D100013402365FFF72EFA07008022236D9200DF
:103D200013421AD0FFF726FA644BC01B9842F4D90D
:103D3000BBE6A021C9008B4218D18023216DDB0096
:103D40000B432365236D1A432265FFF713FA07001F
:103D50008022236D9200134210D0009B012B00D0D3
:103D600077E6A36B564A1340A36372E6236D514A6C
:103D700013402365236D504A134096E7FFF7FAF985
:103D80004E4BC01B9842E3D98FE6AA6901214D4BE7
:103D9000002A18D0A2680A43A260626B0A436263D9
:103DA0008022196A92010A431A62FFF7E3F90700B9
:103DB0000222A368134200D04FE6FFF7DBF9C01BD5
:103DC0000228F5D971E6A2688A43A2601A6A3E49C0
:103DD0000A401A62FFF7CEF907000222A3681342D5
:103DE00000D13AE6FFF7C6F9C01B0228F5D95CE618
:103DF0000C2E43D0354A022B2ED123688027134046
:103E00002360FFF7B7F90600BF0423683B421DD1CA
:103E1000296BEB6AE2680B432D4980260A40134365
:103E20006A6BB6041343E360802322685B04134388
:103E30002360FFF79FF905002368334200D010E6A6
:103E4000FFF798F9401B0228F6D92EE6FFF792F902
:103E5000801B0228D9D928E62368802613402360D6
:103E6000FFF788F90500B6042368334200D1F8E56E
:103E7000FFF780F9401B0228F6D916E61800012B3F
:103E800000D113E68022E368E96A52021A408A42AE
:103E900000D0F4E5F022296B92031A408A4200D048
:103EA000EDE5C022120413406A6B934200D1D8E5BD
:103EB000E5E5C046FFFEFFFFFFFBFFFF88130000A4
:103EC000FFFFFFEF00000140FFDFFFFFFFFFFFFEEE
:103ED000FFFF02FFF7B5041E019101D10120FEBDD5
:103EE00001255B4E019A33682B40934231D32268FF
:103EF000930743D4D20749D401253368019A2B4054
:103F0000934209D93368AB433360FFF733F90700B5
:103F100033682B4200D08CE022684E4D530700D509
:103F20008FE0120706D5EA6823694B49DB000A4097
:103F30001343EB60FFF7FCFCEB68484A1B061B0FC2
:103F4000D35C4749D840474B08601868FFF7CEF864
:103F5000C5E73368019AAB4313433360FFF70AF9AF
:103F600007003368019A2B409342C0D0FFF702F953
:103F70003D4BC01B9842F4D90320B0E7F0203549EF
:103F8000CB688343A0680343CB60B3E7314D6268DD
:103F90002B68022A18D19B03A0D50321EB688B4321
:103FA0001343EB60FFF7E6F863680700022B18D1B4
:103FB0000C22EB681340082B9ED0FFF7DBF82A4B4E
:103FC000C01B9842F4D9D7E7032A02D19B01E4D45D
:103FD00084E7012A02D15B07DFD47FE79B05DCD4AD
:103FE0007CE7032B0BD10C22EB681340934283D068
:103FF000FFF7C0F81C4BC01B9842F4D9BCE7012B5B
:1040000011D00C22EB68134200D175E7FFF7B2F82C
:10401000154BC01B9842F4D9AEE7FFF7ABF8124B33
:10402000C01B9842A8D80C22EB681340042BF4D193
:1040300062E7FFF79FF80C4BC01B984200D867E778
:104040009AE7EB6809490B40E1680B43EB6068E7CE
:104050000020024000100240FFC7FFFF2E9D000815
:10406000000000200800002088130000FFF8FFFF78
:10407000044B054ADB6805495B055B0FCB5C1068A8
:10408000D840704700100240000000203E9D00080C
:10409000044B054ADB6805499B045B0FCB5C106849
:1040A000D840704700100240000000203E9D0008EC
:1040B0008223F7B502681B0105001A4252D0802303
:1040C0000021724C5B05A26B00911A4204D1A26BD5
:1040D0001343A3630123009380276D4E7F00336851
:1040E0003B4200D180E06B68C02118002268890340
:1040F0000A400840904203D1AA680A40824209D08F
:10410000C022190092021140914203D1226801207D
:1041100092037AD4266DC0223000920229681040A2
:10412000164200D072E029680B0500D59BE0890695
:1041300011D56968C0230A009B021A409A4207D130
:10414000236854480340C020800301400B43236090
:10415000236D1A432265009B012B03D1A36B4E4AAA
:104160001340A3632B68DA0706D503204749CA6CBE
:104170008243E8680243CA649A0706D50C20434983
:10418000CA6C824328690243CA645A0706D53F496C
:104190004248CA6C024068690243CA641A0706D5DD
:1041A0003A493F48CA6C0240A8690243CA64DA052A
:1041B00006D536493B48CA6C0240E8690243CA64E6
:1041C0005A0606D531493848CA6C0240686A02432B
:1041D000CA6400201B0618D52C4A3449D36C0B4006
:1041E000296A0B43D36410E033683B433360FEF726
:1041F000C1FF019033683B4200D074E7FEF7BAFF7D
:10420000019BC01A6428F5D90320FEBD13408342E8
:1042100001D08B0607D4AB681340834200D182E7FC
:10422000090500D47FE78021236D206D0903014338
:104230002165216D1B4A1E481A40014021652265F7
:10424000DB0500D46FE7FEF795FF80270600BF006F
:10425000236D3B4200D066E7FEF78CFF154B801BB9
:104260009842F5D9D0E7A868C02302009B021A4003
:104270009A4207D12368074E3340C026B603304028
:1042800003432360236D1A43226550E70010024068
:1042900000700040FFFFCFFFFFFFFFEFFFF3FFFFC6
:1042A000FFCFFFFFFFFFFCFFFFFFFFFBFFFFF3FF61
:1042B000FFFFF7FF8813000030B5EFF310840122F1
:1042C00082F310880168124D0B682B400B6084F359
:1042D0001088EFF3108482F3108801688B68934391
:1042E0008B6084F31088036E93420AD1EFF3108140
:1042F00083F31088102402681368A343136081F3CA
:1043000010882022031DDA6700230366836630BD10
:10431000DFFEFFFF704770477047806A002302008E
:1043200010B55A321380083A1380FFF7F5FF10BD1D
:10433000F7B504000068AB4BC1690668856819428F
:104340000BD12023194200D180E01E4200D17DE034
:10435000A36E2000002B6FD16FE001232F00A24A33
:104360001F4032403A4300D170E025000835194221
:1043700005D0F20503D50362EA6F1343EB6702230E
:10438000194206D0002F04D00362EA6FDB181343F2
:10439000EB670423194206D0002F04D00362EA6FB2
:1043A000023B1343EB670823194207D02022324017
:1043B0003A4303D00362EA6F1343EB6780231B0188
:1043C000194206D0720104D503622023EA6F134319
:1043D000EB67EB6F002B30D02023194206D01E4232
:1043E00004D0A36E002B01D0200098472268EB6F09
:1043F0004027966828223E40134020001E4321D0CB
:10440000FFF75AFF23689B683B4217D0EFF31081F8
:10441000012383F3108822689368BB43936081F380
:104420001088606F002809D0704B8363FEF72AFF65
:10443000002802D0606F836B9847F7BD2000FFF71C
:104440006BFFFAE7FFF768FFEE67F6E7236E012BD5
:1044500000D09AE01022114200D196E0164200D11D
:1044600093E00262816840260F003740314253D00A
:10447000616F0868416889B20029DED0250058358F
:104480002D888D42D9D925005A35298001682020F0
:104490000D0005400195014230D1EFF3108783F301
:1044A00010882568524A29681140296087F31088CE
:1044B000EFF3108783F310882568A9689943A960F2
:1044C00087F31088EFF3108C83F31088210080C9E4
:1044D000BD68B543BD608CF31088019AC867226639
:1044E000EFF3108083F31088102221680B68934348
:1044F0000B6080F31088606FFEF7A4FE0223220099
:104500006366230058325A331B881188C91A89B24E
:104510002000FEF741F990E7250021005A35288850
:104520002D885831098880B2002D00D185E7091AFD
:1045300089B2002900D180E7EFF3108683F3108859
:1045400025682C4A28681040286086F31088EFF30D
:10455000108C83F31088200040C8B5689D43B56077
:104560008CF310882025C5672766A766EFF31085B2
:1045700083F31088206832320368FF32934303606C
:1045800085F3108802236366C2E780235B03194228
:1045900006D06D0204D50362200000F073FC4CE7E6
:1045A0008023194203D01E4201D0E36ED1E640229F
:1045B000114200D141E7164200D13EE7EFF31080EF
:1045C000012383F3108821680B6893430B6080F309
:1045D00010882023E36700232000E366FFF79AFE9C
:1045E0002BE7C0460F080000200100041B43000811
:1045F000FFFEFFFFDFFEFFFFF8B50300011DCC6FDC
:104600005C331A880368222C5AD15B6A446D1340CC
:1046100002002370436D5A32013343651388013B16
:104620009BB2138013889CB2002B45D1EFF3108608
:10463000013383F310880568244F2A683A402A60C2
:1046400086F31088EFF3108683F310880568AA6854
:104650009A43AA6086F310882022CA6702681C4920
:10466000846644668A420DD0526812020AD5EFF37E
:10467000108183F310880268164C1368234013607E
:1046800081F31088036E012B17D100220266EFF32D
:10469000108483F3108801680F330A689A430A6014
:1046A00084F310880268D169194200D013620300B4
:1046B00058331988FEF770F8F8BDFFF72CFEFBE7BA
:1046C000082299690A439A61F6E7C046DFFEFFFFB8
:1046D00000480040FFFFFFFBF8B50300021DD16F4B
:1046E0005C331C880368222959D1596A436D2140E3
:1046F00019800100023343655A310B88013B9BB29C
:104700000B800B889CB2002B45D1EFF31086013350
:1047100083F310880568244F29683940296086F39F
:104720001088EFF3108683F310880568A968994311
:10473000A96086F310882021D16702681B4984662E
:1047400044668A420DD0526812020AD5EFF31081F6
:1047500083F310880268164C13682340136081F3BA
:104760001088036E012B17D100220266EFF310842C
:1047700083F3108801680F330A689A430A6084F350
:1047800010880268D169194200D0136203005833BF
:104790001988FEF701F8F8BDFFF7BDFDFBE7082219
:1047A00099690A439A61F6E7DFFEFFFF004800407F
:1047B000FFFFFFFBF8B504002569A16802682943E3
:1047C0006569C36929431068774D1943284001433F
:1047D000116051687548764D0140E06801435160B1
:1047E000A069AA4201D0216A08439168714E314004
:1047F0000143916070498A420FD103216F4AD26C04
:104800000A40013A6E49022A0FD9802212029342CD
:1048100000D0A1E0FFF73CFCC1E06A498A4217D111
:104820000C20664A6849D26C0240885C80221202E1
:10483000934200D082E0082824D8FBF781FCAE0028
:10484000EBFF5C0023007C002300230023006700B3
:104850005E498A4200D19CE05D498A4200D198E0DD
:10486000AA420FD1C0218020544A0901D36C000113
:104870000B40834216D007D8002B0AD08022D200EA
:10488000934235D0012009E08B42FBD18020000209
:1048900012E0FFF7EDFB00280ED100200023A366F5
:1048A000E366F8BD10231068184043425841494B55
:1048B00040421840484BC018032263685A43824262
:1048C000E0D81A038242DDD30027020E01025E08FF
:1048D00089197A41080011001A003B00FBF7EEFD30
:1048E0003E4BC2183E4B9A42CCD82368D860D4E7DE
:1048F000FFF71EF8CFE71022304B1B6813405A42D7
:104900005341344A5B421340334A9B186168580054
:104910004B08C018FBF71EFC0200324B103A9A42BB
:10492000B0D80F23020000079A4393B2400F2268C9
:104930000343D360B1E7FEF7FBFF30E00828A1D8BE
:10494000FBF7EAFB050A0DA021A0A0A02400FFF7B9
:104950008FFB0028A1D00DE0FFF79AFBF9E7174B7A
:10496000186810231840434258411A4B40421840DF
:10497000194BC01861684B081818FBF7EBFB0200D5
:10498000184B103AAFE7FEF7D3FFE2E780200002B2
:10499000F0E7802212029342D9D1FFF769FB031E90
:1049A00000D17AE7B2E7C046F369FFEFFFCFFFFF20
:1049B00000480040FFF4FFFF0038014000100240B3
:1049C0004F9D000800440040529D0008004C0040EC
:1049D00000500040001BB70000093D0000FDFFFF34
:1049E000FFFC0F00EFFF0000436A30B5DA0706D581
:1049F0000168284C4A682240846A22434A609A0728
:104A000006D50168244C4A682240C46A22434A60A1
:104A10005A0706D50168214C4A682240046B22439C
:104A20004A601A0706D501681D4C4A682240446B4B
:104A300022434A60DA0606D501681A4C8A68224089
:104A4000846B22438A609A0606D50168164C8A68F0
:104A50002240C46B22438A605A0610D50168134D68
:104A60004A68046C2A4022434A60802252039442DE
:104A700005D14A680E4C2240446C22434A601B0612
:104A800006D502680B4953680B40816C0B43536099
:104A900030BDC046FFFFFDFFFFFFFEFFFFFFFBFF36
:104AA000FF7FFFFFFFEFFFFFFFDFFFFFFFFFEFFFD6
:104AB000FFFF9FFFFFFFF7FFF7B504000D00170092
:104AC000082600932268D3692B405B1B59424B4157
:104AD000BB4201D0002021E0089B0133F3D0FEF758
:104AE00049FB009BC01A089B984228D8002B26D06F
:104AF000042123681A680A42E4D0DA6911003140BF
:104B0000019132420BD020001E62FFF7D5FB23003B
:104B10000833DE670023012078342370FEBD802235
:104B2000D96912011142CDD01A622000FFF7C4FBEF
:104B3000230020220833DA67019B78342370032096
:104B4000ECE7F0B585B00393C36F04000D001600C9
:104B50000220202B39D10138002936D0002A34D048
:104B60008023A2685B019A4204D12369002B01D102
:104B700001422AD1230000220833DA672123E367A8
:104B8000FEF7F8FA230050331E8002331E80029392
:104B90008023A268070000265B019A4204D12369A2
:104BA000B34201D12E001D00230052331B889AB25C
:104BB000002B0CD1039B4021009320003B00FFF70A
:104BC0007BFF2023E36700280DD105B0F0BD039BD8
:104BD0000022009380213B002000FFF76DFF00289A
:104BE00003D02023E3670320EFE72268002D0BD1D9
:104BF00033880236DB05DB0D9362029B029A1B8829
:104C0000013B9BB21380CFE72B7801359362F4E729
:104C1000030073B5002504000833DD67FEF7AAFA28
:104C2000236806001B681B071DD58021264B2A0020
:104C30000093890303002000FFF73EFFA84212D033
:104C4000EFF31081012383F310888020226813681A
:104C50008343136081F310882023E367032000233C
:104C60007834237076BD250008CD1B685B0723D5FB
:104C70008021154B0022009320003300C903FFF769
:104C80001BFF002818D0EFF31080012282F3108858
:104C900021680E4E0B6833400B6080F31088EFF3F1
:104CA000108082F3108821688B6893438B6080F3B7
:104CB00010882023EB67D1E720230020E367EB6710
:104CC00020666066CBE7C046FFFFFF01DFFEFFFF07
:104CD00010B5041E01D1012010BDC36F002B04D1FB
:104CE000020078321370FEF707F9242301212268AD
:104CF000E367136820008B431360FFF75BFD012817
:104D0000E9D0636A002B02D02000FFF76DFE236814
:104D100007495A6820000A402A215A609A688A4343
:104D20009A60012219680A431A60FFF771FFD3E7FE
:104D3000FFB7FFFF0300583310B541651A805A8052
:104D4000802100238268836649018A4238D1036941
:104D50005A1E9341FF225B429343264A9B1802004E
:104D60005C321380030000220833DA67031D22320D
:104D7000DA67EFF31081012383F3108802689468E7
:104D80002343936081F310888021846802691A4B61
:104D900049018C4202D1002A00D1184B83660123BD
:104DA000002A1FD0EFF3108183F3108802682033AC
:104DB0001068FF330343136081F31088002010BD97
:104DC000002A05D102697F23002AC8D18033C6E7B3
:104DD000802149058A42C2D102697F23002ABED0C0
:104DE000403BBCE7EFF3108183F310880268202377
:104DF0001068DFE7FF010000F9450008D946000808
:104E0000F8B504000F0016001D00002801D1012094
:104E1000F8BDC36F002B04D1020078321370FEF787
:104E20006BF8242301212268E367136820008B4379
:104E30001360FFF7BFFC0128E9D0636A002B02D0A2
:104E40002000FFF7D1FD80222368D2019968760502
:104E50000A439A609A6809492D040A403A439A60C5
:104E60001A68074935430A40154301221D60196835
:104E700020000A431A60FFF7CBFEC9E7FF7FFFFF60
:104E8000FFFF00FC7047031DDB6F70B504000220BC
:104E9000202B02D1002901D1012070BD002AFBD0B6
:104EA0008020A56801234001854204D120690028A3
:104EB00001D11942F0D12366002320006366FFF779
:104EC00039FF0028E9D1226E012AE5D1102321689B
:104ED0000B62EFF3108182F3108822681468234379
:104EE000136081F31088D8E7F0B51E00002314008A
:104EF0008BB09E4204DA8021090673181E002D2310
:104F0000129A149F1370202303229F43462F07D029
:104F10003B00453B59424B411099013ACB18109345
:104F200009AB049308AB0393139B00920293109B6D
:104F300022000193330001F0C3F90500472F02D18D
:104F4000119BDB0728D5109BEB180793462F14D134
:104F50002B78302B0CD10022002320003100FBF7EE
:104F60007FFA002804D10123109A9B1A139A136028
:104F7000139B079A1B68D318079300220023200075
:104F80003100FBF76DFA002801D0079B099330220E
:104F9000099B07998B4206D32800099B159A5B1B36
:104FA00013600BB0F0BD591C09911A70F0E7F0B511
:104FB000831C87B0039305000C002B23027000298B
:104FC00001DA4C4202336B70092C2FDD0A2704AB47
:104FD000DE1D200039000196FBF72CFA013E30312E
:104FE0002000317039000294FBF73EF9029B040067
:104FF000632BEEDC019B30349A1E1300039914706E
:1050000004A8073098420CD80023824204D804AA8E
:1050100009339B18019A9B1A039AD318581B07B09F
:10502000F0BD1878013308700131E9E730233034DE
:10503000AB70EC702B1DF1E7F0B595B00C00089249
:105040001A9D0993070001F01DF8036818000C93DE
:10505000FBF75AF800231293237E07220A93236852
:105060000D900B930B992B68C90547D59B1893435B
:105070001A0008322A601E685D6832002B00A264A4
:10508000E36401226B005B080E933000AB4B0E997A
:105090005242FDF73BF9002832D101223000A74BE4
:1050A0000E995242FBF7ECF9002829D10022002387
:1050B00030002900FBF7DAF9002803D023002D2265
:1050C00043331A700A9B9E4D472B00D99D4D0323F5
:1050D0000B9A236101339A43002322600B93099BAF
:1050E000210000933800089B13AA00F0FBF901305F
:1050F00000D0A3E00120404215B0F0BD0733B6E771
:1051000032002B0030002900FDF700F900280BD0F9
:10511000002D03DA23002D2243331A700A9B8A4D97
:10512000472BD4D9894DD2E720220A99636891434D
:105130000E915A1C4AD10733636080230B9ADB001F
:1051400013430022069212AA05920A9A236004923F
:1051500011AA0392232208A90193636852180292AC
:10516000009332002B003800FFF7BEFE0E9B0500B7
:10517000472B09D1119BDA1C02DB6268934249DD9F
:105180000A9B023BDBB20A930A9B1199652B24D838
:1051900020001A00013950301191FFF708FF129AD0
:1051A0000B9013182361012A02DC2268D20701D573
:1051B00001332361232308AA9B181B78002B00D1FD
:1051C0008DE723002D2243331A7088E70E9A472A71
:1051D000B3D1002BB1D10133AEE70A9B662B1BD1B3
:1051E0006368002909DD2161002B02D12268D20702
:1051F0000BD501335B18236107E0002B03D101229B
:105200002168114200D09A1C2261119BA3650023E2
:105210000B93CFE767230A931199129B994206DB00
:1052200023682161DB07F0D501312161EDE701221F
:10523000002901DC9218521A9B18DCE722685305FA
:1052400008D423692A0038000899099DA84701302D
:105250002AD14FE70A9B652B00D8ECE0A06CE16CEB
:1052600000220023FBF7FCF8002834D0012338008B
:10527000374A0899099DA847013000D13AE7119AA9
:10528000129B9A4202DB2368DB070DD5099D38008B
:105290000D9B0C9A0899A8470025013000D129E7F9
:1052A000129B013BAB420ADC23689B0700D516E149
:1052B000139BE068984200DB1EE718001CE7220001
:1052C000012338000899099E1A32B047013000D1F5
:1052D00010E70135E4E7119B002B3BDC012338008C
:1052E0001B4A0899099EB047013000D102E7119B83
:1052F000129A134302D12368DB07D5D50D9B3800E2
:105300000C9A0899099EB0470023013000D1F1E6BC
:105310000A93119B0A9A5B42934201DC129B91E72C
:105320002200012338000899099E1A32B047013043
:1053300000D1DFE60A9B0133EAE7C046FFFFEF7FBB
:105340005F9D0008639D0008679D00086B9D000835
:105350006F9D0008129AA36D0A929A4200DD0A938B
:105360000A9B002B3DDC00230E930A9BDB43DB17DB
:105370000F93A36D0A9A0B930F9B13400B9AD31AAA
:105380000E9A934236DC119A129B9A4240DB2368B4
:10539000DB073DD4129E119A0B9BF31AB61A9E425C
:1053A00000DD1E00002E3CDC00230A93F343DB17D4
:1053B0000B93119A129B9B1A0B9A32409B1A0A9AD2
:1053C000934200DC70E72200012338000899099D10
:1053D0001A32A847013000D18CE60A9B01330A93A8
:1053E000E7E72A0038000A9B0899099EB047013078
:1053F000B9D17FE62200012338000899099E1A32AC
:10540000B047013000D175E60E9B01330E93B0E733
:1054100038000D9B0C9A0899099EB0470130B9D10C
:1054200068E60B9B3800EA1808993300099DA847E5
:105430000130B9D15EE6129B012B02DC01231A4236
:105440003AD001232A0038000899099EB04701305C
:1054500000D14FE638000D9B0C9A0899099EB04781
:10546000013000D146E6A06CE16C129B00221E00C8
:105470000023FAF7F5FF00281CD133006A1C013B1A
:1054800038000899099DA84701300FD132E6220063
:10549000012338000899099E1A32B047013000D123
:1054A00028E60135129B013BAB42F0DC22000B9B4E
:1054B0005032C8E60025F5E72A00E1E72200012383
:1054C00038000899099E1932B047013000D111E621
:1054D0000135E368139A9B1AAB42EFDCE8E600253E
:1054E000F7E7C046F7B5160001938A680B690C0010
:1054F0000090934200DA13002200336043321278A6
:10550000002A01D00133336023689B0602D533683B
:10551000023333602268062315001D401A4227D04B
:10552000230043331B785A1E93412268920630D4DD
:10553000220001990098089D4332A847013025D0E8
:105540000622236800251340042B05D13368E56843
:10555000ED1AEB43DB171D40A3682269934201DD7E
:105560009B1AED180026B54220D1002010E001352D
:10557000E36832689B1AAB42D2DD22000123019915
:105580000098089F1932B8470130F0D101204042FD
:10559000FEBD3020E1184331087021005A1C45310E
:1055A0000978A218433202331170C1E722000123A7
:1055B00001990098089F1A32B8470130E6D00136A9
:1055C000D1E70000F0B58BB006920A004332079392
:1055D000059004920A7E0C00109B782A09D8622A52
:1055E0000BD8002A00D1BEE07C490391582A00D193
:1055F00093E026004236327022E01000633815280E
:10560000F7D8FAF79DFD16001F00F6FFF6FFF6FF2C
:10561000F6FF1F00F6FFF6FFF6FFF6FFA3003600C9
:105620008300F6FFF6FFB400F6FF3600F6FFF6FF44
:10563000870026001A684236111D196013683370FE
:105640000123A2E018680968021D0D060BD5056844
:105650001A60002D03DA2D23049A6D4213705F4BFC
:105660000A2703931BE005681A604906F1D52DB29D
:10567000EFE70D681968081D18602E0601D50D6842
:1056800003E06D06FBD50D68ADB2544B08270393BC
:105690006F2A00D002372300002243331A70636858
:1056A000A360002B03DB042122688A432260002DC3
:1056B00002D1049E002B0CD0049E28003900FAF77A
:1056C000CFFD039B013E5B5C33702B0005009F42C6
:1056D000F3D9082F09D12368DB0706D5626823694F
:1056E0009A4202DC3023013E3370049B9B1B2361F2
:1056F000079B210000930598069B09AAFFF7F2FE7D
:10570000013047D1012040420BB0F0BD2022096892
:105710000A432260782232490391210045310A7000
:105720001968226820C9100602D4500600D5ADB20F
:105730001960D30702D52023134323601027002DBF
:10574000A9D12022236893432360A4E71A680D6837
:10575000101D4969186013682E0601D5196002E012
:105760006D06FBD519800023049E2361C0E71A68EB
:10577000111D1960166800213000626800F001FDFB
:10578000002801D0801B6060636823610023049AB5
:105790001370ADE73200236906990598079DA84765
:1057A0000130AFD023689B0715D4099BE06898426D
:1057B000AADA1800A8E72200012306990598079E97
:1057C0001932B04701309DD00135E368099A9B1A20
:1057D000AB42F0DCE9E70025F7E7C046719D000821
:1057E000829D0008F0B58BB016000290AE2200201A
:1057F00007938B680F00591E52000690914205D9FD
:105800005E3BFF3B06935E23FF33BB60F0233A68A9
:10581000DB0013433B603B0000241C331D0004935A
:1058200003940994089401940594BA68002A0AD054
:1058300033681B784E2B44D81800402B2CD82B38BB
:10584000C1B20E292AD9019B002B03D03B68A34A81
:1058500013403B60039B013B012B00D9F9E0BE24C0
:105860006400049B9D4200D9E9E00123039383E196
:10587000180061380D28E6D8FAF762FC8300E5FFCE
:10588000E5FFE5FFB600A200E5FFE5FF8900E5FFC3
:10589000E5FFE5FFE5FF65004138EBE70E28D2D8CC
:1058A000FAF74EFC4B00D1FF4B009800D1FF2000CF
:1058B00040004000400040004000400040004000E8
:1058C00040006E2B09D8602BD2D8542B7DD0592B99
:1058D000B9D1072CB7D108242CE0742B75D0792BC3
:1058E000F7D0B0E73968C8051CD580239943019BE0
:1058F000396001330193069B002B03D0013B013239
:105900000693BA60BB68013BBB603B6901333B61F6
:105910007368013B7360002B00DC86E03368013361
:10592000336082E7039A1219002A8CD13A686C49D5
:105930000A403A602B700135E4E780213A680A4258
:1059400081D08A43F5E7039A002A0FD1019A002AF1
:105950000FD13A68E0211000C9000840884208D100
:1059600060490A403A6001220392E3E7039A022A5F
:1059700059D0012C02D0042C00D064E70134E4B2E9
:10598000D8E7039A012A00D05DE70222ECE7002C59
:1059900010D1019A002A00D058E73A68E02110009F
:1059A000C9000840884200D054E74E4901340A40FB
:1059B0003A60BFE7FD21E21E0A4200D043E7DDE77F
:1059C000022C00D03FE70324B4E7062C00D03AE7CE
:1059D0000724AFE73A68910500D434E742490A400A
:1059E0003A60019A0592A5E7A02180203A68C90093
:1059F0001140C000814206D0024200D123E7019944
:105A0000002900D126E7910504D40199059809954C
:105A1000091A089133490A40C02149000A433A60F3
:105A20000022019286E703229EE7C0235B0031003B
:105A3000FB5802989847002800D1F6E603E7013D9D
:105A40003B5932002978029898473B69013B3B61FA
:105A500007E7631E062B0ED80395022C20D9631B83
:105A6000DBB20693039B069A9B18DBB2032B27D865
:105A7000033CE4B22D1B3B68DA0552D55B0535D5F6
:105A8000BE246400049B9D4200D8EEE6013D3B59D4
:105A900032002978029898473B69013B3B61F1E766
:105AA000BE246400049B9D4200D8DEE6013D3B59C4
:105AB00032002978029898473B69013B3B61F1E746
:105AC000039B3200013B19780393BE235B00FB5814
:105AD000029898473B69013B3B61C3E7FFFEFFFF2C
